:020000040800F2
:10000000280A0020C1010008431F00082917000822
:10001000411F000869030008952200080000000045
:100020000000000000000000000000007D2000082B
:100030006B03000800000000451F00087F20000837
:10004000DB010008DB010008DB010008DB01000820
:10005000DB010008DB010008DB010008DB01000810
:1000600075030008DB010008DB010008DB01000864
:10007000DB010008DB010008DB010008DB010008F0
:10008000DB010008DB010008DB010008DB010008E0
:10009000DB010008DB010008DB010008DB010008D0
:1000A000DB010008E5200008DB010008DB01000897
:1000B000F1200008DB010008DB010008DB0100087B
:1000C000DB010008DB010008DB010008DB010008A0
:1000D000DB010008DB010008DB010008DB01000890
:1000E0006D030008DB010008DB01000800F002F8E6
:1000F00000F03CF80AA090E8000C82448344AAF186
:100100000107DA4501D100F031F8AFF2090EBAE883
:100110000F0013F0010F18BFFB1A43F0010318473B
:100120006435000084350000103A24BF78C878C1D7
:10013000FAD8520724BF30C830C144BF04680C60ED
:10014000704700000023002400250026103A28BF35
:1001500078C1FBD8520728BF30C148BF0B60704739
:100160001FB500F062F81FBD10B510BD00F0C2F859
:100170001146FFF7F5FF02F08FFA00F0E0F803B444
:10018000FFF7F2FF03BC00F0E9F800000B49D1F8DB
:1001900000C04A685CF8043B1068184442F8040B3D
:1001A0008C4528BFA1F1DC0C8A4228BFA1F1DC02FA
:1001B000C1F800C04A6020F000407047BC03002036
:1001C0000948804709480047FEE7FEE7FEE7FEE7EB
:1001D000FEE7FEE7FEE7FEE7FEE7FEE70448054927
:1001E000054A064B70470000E1200008ED000008BA
:1001F00028040020280A00202806002028060020C5
:100200000B4910B5A1F17C020A4CC2E93712372123
:1002100006E000EB104342F82130074B00FB03409F
:100220000B1EA1F10101F4DC10BD0120E8E7000084
:100230005C030020E119D666CD0D010010B5203A0F
:10024000C0F00B80B1E81850203AA0E81850B1E88F
:100250001850A0E81850BFF4F5AF5FEA027C24BF45
:10026000B1E81850A0E8185044BF18C918C0BDE83C
:1002700010405FEA827C24BF51F8043B40F8043B05
:1002800008BF7047D20728BF31F8023B48BF11F8BA
:10029000012B28BF20F8023B48BF00F8012B704714
:1002A0004FF0000200B5134694469646203922BF0F
:1002B000A0E80C50A0E80C50B1F12001BFF4F7AF5A
:1002C000090728BFA0E80C5048BF0CC05DF804EB3C
:1002D000890028BF40F8042B08BF704748BF20F8AA
:1002E000022B11F0804F18BF00F8012B70477047A8
:1002F00070477047754600F02BF8AE46050069461A
:10030000534620F00700854618B020B5FFF766FF7A
:10031000BDE820404FF000064FF000074FF0000806
:100320004FF0000B21F00701AC46ACE8C009ACE887
:10033000C009ACE8C009ACE8C0098D46704710B5EB
:100340000446AFF300802046BDE81040FFF717BF1A
:1003500000487047C403002070470000014918207E
:10036000ABBEFEE726000200FEE770474FF4806058
:1003700000F028B8042000F025B8000070B504464D
:1003800000F02AF90546601C02D0044800780444B5
:1003900000F022F9401BA042FAD370BDA400002057
:1003A0000649898A814207D10548418A491C418210
:1003B0000179012900D101707047000090020020EE
:1003C00078000020044910B50A68024202D0086093
:1003D000FFF7E6FF10BD0000140401402DE9F84FBF
:1003E000DFF8B8910024A9F1040B23460F2709F187
:1003F000040AABF1040EC9E00125A5402A40AA4237
:100400007DD1674ED1F804C0ACEB0608B44532D0BC
:1004100014DCBCF1030F3AD009DCBCF1000F2AD088
:10042000BCF1010F1CD0BCF1020F31D11DE0BCF1B9
:10043000110F17D0BCF1120F2AD119E0B8F5881F9F
:1004400019D006DCB8F5803F15D0B8F5801F1FD154
:1004500011E0B8F5001F0ED0B8F5041F18D10AE05E
:10046000CB6815E0CB681B1D12E0CB6808330FE0AA
:10047000CB680C330CE08B682BB1012B4FF00803D9
:1004800003D0456104E0042302E0056100E000239D
:10049000FF2A01D8064601E000F104064FEA840570
:1004A00001D9A5F12005D6F8008007FA05FC28EA55
:1004B0000C0803FA05F548EA0508C6F800804D68FF
:1004C000ED0062D5374DAE6946F00106AE61AD690B
:1004D00024F0030605F001050095334D06EB050CED
:1004E000DCF80850A607360F07FA06F825EA0805D3
:1004F000DFF8B880404503D14FF0000817E044E032
:10050000DFF8AC80404502D14FF001080FE0DFF882
:10051000A480404502D14FF0020808E0DFF898803F
:10052000404502D14FF0030801E04FF0040808FAFB
:1005300006F848EA0508CCF808804D68D9F800604C
:10054000ED024D4601D5164300E096432E604D68FE
:10055000DAF80060AD02554601D5164300E0964337
:100560002E604D68DBF80060AD035D4601D5164393
:1005700000E096432E604D68DEF80060ED0375469E
:1005800001D5164300E096432E60641C0D682A4690
:10059000E5407FF431AFBDE8F88F0000080401406A
:1005A000000011100010024000000140000801404E
:1005B000000C01400010014000140140C26821EA13
:1005C00002030A4043EA0241016170470AB1016136
:1005D00070470904FBE7000001488068704700008D
:1005E000A4000020024881680278114481607047AD
:1005F000A4000020074810B5016841F01001016017
:10060000032000F075F80F2000F006F800F024F841
:10061000002010BD0020024070B50D4D04464FF47F
:100620007A712878B1FBF0F00A490968B1FBF0F063
:1006300000F0EDFD48B9102C07D200222146501ED3
:1006400000F036F800206C6070BD012070BD000025
:10065000A4000020B00000200C4808B5816941F0DA
:1006600001018161816901F001010091C16941F0DD
:100670008051C161C06900F0805000900448416819
:1006800021F0E06141F00071416008BD00100240BE
:1006900000000140002809DB00F01F020121914009
:1006A0004009800000F1E020C0F800117047000010
:1006B000F0B40E4B1B680C46C3F30223C3F10705CD
:1006C000042D00D90425191D072901D2002300E0BB
:1006D000DB1E012606FA05F1491E214099409E4085
:1006E000761E16403143F0BC01F0D6BE0CED00E0A2
:1006F000064900F0070208684FF6FF03184040EA79
:100700000220034A10430860704700000CED00E02F
:100710000000FA052DE9F0470F46050061D0434E71
:10072000306800F00700B84209D2306820F00700B6
:1007300038433060306800F00700B84251D1286873
:100740003B4C810712D5400703D5606840F4E06058
:1007500060602878000703D5606840F460506060EE
:100760006068A96820F0F000084360602878C0073E
:1007700028D06868012810D02168022810D0890785
:1007800000292EDA616821F0030101436160FFF75F
:1007900023FF804641F288390DE021688903EFE7A5
:1007A0008901EDE7FFF718FFA0EB0801494502D9E1
:1007B0000320BDE8F0876068696800F00C00B0EBCA
:1007C000810FEFD1306800F00700B8420BD93068D4
:1007D00020F0070038433060306800F00700B8426E
:1007E00001D00120E5E72878400705D56068E96871
:1007F00020F4E060084360602878000706D5606850
:10080000296920F4605040EAC100606000F038F8C7
:100810006168084AC1F30311515CC8400649086089
:1008200006480068FFF7F8FE0020C2E700200240FB
:10083000001002406A360008B0000020A800002026
:100840000448054900684968044AC1F30221515C23
:10085000C8407047B0000020001002407A360008FF
:100860000448054900684968044AC1F3C221515C43
:10087000C8407047B0000020001002407A360008DF
:100880000E4A51680E4801F00C03042B11D0082BBE
:100890000FD10C48C1F38343C903C05C0AD551682A
:1008A000084AC1F34041921E515C054A5043B0FBD7
:1008B000F1F07047044948437047000000100240BF
:1008C00000127A005A36000800093D002DE9F84F61
:1008D000040070D02078C04DC00749D06868C0F3CC
:1008E0008100012807D06868C0F38100022809D17F
:1008F0006868C00306D52868800339D56068002879
:10090000E7D035E06068B0F5803F0BD010B1B0F5AE
:10091000A02F11D0286820F480302860286820F4A7
:10092000802002E0286840F480302860606890B140
:10093000FFF752FE06460AE0286840F4802028604F
:10094000F0E700BFFFF748FE801B642873D82868D3
:100950008003F7D50CE0FFF73FFE064605E000BF39
:10096000FFF73AFE801B6428F0D828688003F7D48C
:1009700020789A4E80074FF001094FF0000839D5D2
:10098000686810F00C0F07D06868C0F38100022877
:1009900009D16868C00306D42868800714D5206987
:1009A000012808D110E02069B0B1C6F80090FFF727
:1009B00013FE074605E00AE1FFF70EFEC01B022802
:1009C000C4D828688007F7D52868616920F0F80046
:1009D00040EAC10028600DE0C6F80080FFF7FCFD8A
:1009E000074604E0FFF7F8FDC01B022823D828685B
:1009F0008007F7D4207800072CD57948A169D9B1B0
:100A0000C0F80090FFF7E8FD074604E0FFF7E4FDBB
:100A1000C01B02280FD8686A8007F7D571484FF4C9
:100A2000FA510068B0FBF1F0009000BF0098411E41
:100A30000091FAD20EE080E0C0F80080FFF7CCFD14
:100A4000074604E0FFF7C8FDC01B022875D8686A96
:100A50008007F7D42078400760D5E8690027C000F8
:100A600008D4E86940F08050E861E869012700F0A7
:100A7000805000905C480168C90513D40168834622
:100A800041F480710160FFF7A7FD824606E000BFD8
:100A9000FFF7A2FDA0EB0A0064284ED8DBF80000A7
:100AA000C005F5D5E06801280AD008B1052813D0A3
:100AB000286A20F001002862286A20F0040002E081
:100AC000286A40F001002862E06841F2883B98B152
:100AD000FFF782FD82460BE0286A40F0040028629E
:100AE000EEE700BFFFF778FDA0EB0A0159455AD8A1
:100AF000286A8007F6D50CE0FFF76EFD824605E018
:100B0000FFF76AFDA0EB0A0159454CD8286A800717
:100B1000F6D41FB1E86920F08050E861E06988B33D
:100B20006968C1F38101022944D00228C6F86080B7
:100B300004D0FFF751FD044638E034E0FFF74CFDE8
:100B4000074604E0FFF748FDC01B02282BD82868A1
:100B50008001F7D4206AB0F5803F05D16868A168AC
:100B600020F4003008436860D4E90801084369684C
:100B700021F4741108436860C6F86090FFF72CFDFB
:100B8000044606E025E000BFFFF726FD001B022813
:100B900009D828688001F7D51BE000BFFFF71CFDCE
:100BA000001B022802D90320BDE8F88F28688001C5
:100BB000F4D40EE00128F7D06868226A00F480318E
:100BC000914204D1616A00F47010884201D0012082
:100BD000EAE70020E8E7000000100240000042427F
:100BE00080044242B00000200070004090F85100A4
:100BF000704770B5040009D0606A002540B12561D6
:100C00006561A56294F8510040B10CE0012070BD0F
:100C10006068B0F5827FF4D0E561F2E784F8505067
:100C2000204600F03FF8022084F851002068016857
:100C300021F040010160A088218900F4827001F454
:100C400004410843A18901F400610843217C01F0BB
:100C500002010843217D01F001010843218B01F4C9
:100C600000710843217F01F03801084394F82010F7
:100C700001F080010843218D01F4005108432168EF
:100C80000860A069042101EA1040216848602068DA
:100C9000C16921F40061C1616565012084F85100DA
:100CA000002070BD30B585B00024009401940294FA
:100CB0000394254D0368254802210322AB421AD133
:100CC000836943F480538361836903F480530493FD
:100CD000836943F00403836180691D4D00F00400C3
:100CE0000490A020CDE90001039269462846FFF751
:100CF00075FB40201EE0174DAB4222D1C36943F47F
:100D00008043C361C36903F480430493836943F060
:100D1000080383618069104D00F0080004904FF4CF
:100D20002040CDE90001039269462846FFF756FBB3
:100D30004FF48040CDE90004694628460294FFF74D
:100D40004DFB05B030BD00000030014000100240F6
:100D50000008014000380040000C01402DE9F84F28
:100D6000044690F85100984616460F460025012883
:100D700001D0022598E060684FF0040BB0F5827F47
:100D800001D1A068F8B194F85000012826D04FF0A6
:100D9000010984F85090FFF71FFC8246002F7FD096
:100DA000002E7DD084F851B000206065A763A6872F
:100DB000E6872063A086E08620646064A068B0F5C2
:100DC000004F0DD016E084F851B013460A46204675
:100DD000CDF8008000F024F9BDE8F88F0220FBE791
:100DE0002068016821F0400101602068016821F459
:100DF0008041016020680168490603D4016841F020
:100E000040010160E068D8B13BE020688168C90713
:100E100009D0007BA16B0870A06B401CA063E08F21
:100E2000401EE0870CE0FFF7D7FBA0EB0A0141452D
:100E300003D3B8F1FF3F03D006E0B8F1000F03D0B1
:100E4000E08F0028E1D11FE003252BE020688168B6
:100E5000C90709D0C068A16B0880A06B801CA06383
:100E6000E08F401EE0870CE0FFF7B6FBA0EB0A0125
:100E7000414503D3B8F1FF3F03D0E5E7B8F1000FD8
:100E8000E2D0E08F0028E1D152464146204601F0F1
:100E90005AF808B120206065606D00E000E008B1FC
:100EA000012501E084F85190002084F85000284684
:100EB00092E72DE9F84F044690F850000026984636
:100EC00015468A4601280CD0012784F85070FFF798
:100ED00083FB814694F85100B346012804D00226D2
:100EE0009AE00220BDE8F88FBAF1000F6FD0002D14
:100EF0006DD0032084F85100C4F854B0C4F830A079
:100F0000A586E586C4F838B0A4F83CB0A4F83EB095
:100F1000C4F844B0C4F840B0A068B0F5004F09D19F
:100F20002068016821F0400101602068016841F4F7
:100F30008041016020680168490603D4016841F0DE
:100F400040010160E068B0F5006F606803D058B3FD
:100F5000012D29D049E008B1012D1FD1206B216856
:100F60000088C86006E020688168890709D5216B80
:100F70000988C160206B801C2063E08E401EE086E3
:100F80000CE0FFF729FBA0EB0901414503D3B8F1C1
:100F9000FF3F03D006E0B8F1000F03D0E08E002839
:100FA000E1D125E0032635E0206B21680078087345
:100FB00006E02068816889070AD5216B09780173EA
:100FC000206B401C2063E08E401EE0860DE01FE099
:100FD000FFF702FBA0EB0901414503D3B8F1FF3F46
:100FE00003D0DFE7B8F1000FDCD0E08E0028E0D1BD
:100FF0004A464146204600F0D4FF08B120206065F3
:10100000A06818B92068C16880680090606D08B158
:10101000012601E084F8517084F850B0304661E751
:101020002DE9FF4F81B0044690F8500000260E9F36
:101030001D4693464FF0010901280FD04FF0010AD9
:1010400084F850A0FFF7C8FA804694F85100616810
:1010500001280DD0B1F5827F08D103E0022005B050
:10106000BDE8F08FA16809B9042801D00226C9E0C3
:101070000298002865D0BBF1000FFBD0002DF9D0FD
:1010800094F85100042802D0052084F85100002073
:101090006065C4F838B0E587A58702992163E586C5
:1010A000A5862064606420680168490603D401684D
:1010B00041F040010160E068B0F5006F606803D066
:1010C000F0B3012D47D081E008B1012D3CD1206B58
:1010D00021680088C860206B801C2063E08E401E61
:1010E000E08631E02068816889070FD5E18E69B11B
:1010F000B9F1010F0AD1216B0988C160206B801CF6
:101100002063E08E401EE0864FF000092068816871
:10111000C9070CD0E18F51B1C068A16B0880A06BEA
:10112000801CA063E08F401EE0874FF00109FFF7AD
:1011300053FAA0EB0800B84206D3781C04D001E0B3
:1011400009E05BE003265BE0E08E0028CAD1E08F77
:101150000028C7D140E0206B216800780873206B1D
:10116000401C2063E08E401EE0862FE020688168EE
:1011700089070FD5E18E69B1B9F1010F0AD1216B51
:1011800009780173206B401C2063E08E401EE086CE
:101190004FF0000920688168C9070CD0E18F51B178
:1011A000C068A16B0870A06B401CA063E08F401E5C
:1011B000E0874FF00109FFF70FFAA0EB0800B842F3
:1011C00002D3781C02D0BAE7002FB8D0E08E0028F6
:1011D000CCD1E08F0028C9D142463946204600F0E4
:1011E000E0FE18B10126202060650BE0A06818B968
:1011F0002068C16880680090606D08B1012601E038
:1012000084F851A0002084F85000304627E710B53C
:10121000401EB0F1807F01D3012010BD4FF0E024CB
:1012200060610F21601701F037F90020A0610720ED
:101230002061002010BD70477047000070B590F825
:101240003C20012A26D0012480F83C40022280F86C
:101250003D2003685A689D6822F070060A68324390
:101260005A600D4B02689A4208D0B2F1804F05D007
:101270000A4B9A4202D00A4B9A4204D1496825F09F
:1012800080031943916080F83D40002180F83C10B4
:10129000084670BD022070BD002C014000040040D3
:1012A0000008004010B5040003D094F83D0010B1D0
:1012B00007E0012010BD002084F83C00204600F02B
:1012C0001FF8022084F83D00211D206800F016FF61
:1012D000012084F8460084F83E0084F83F0084F83A
:1012E000400084F8410084F8420084F8430084F808
:1012F000440084F8450084F83D00002010BD000043
:1013000008B5154A0168154891420ED1816941F42A
:10131000006181618069002200F400600090114644
:101320001920FFF7C5F9192010E0B1F1804F11D154
:10133000C16941F00101C161C069002200F00100F2
:10134000009011461C20FFF7B3F91C20BDE80840AF
:10135000FFF7A0B908BD0000002C014000100240BA
:1013600090F83D10012901D001207047022180F83A
:101370003D100168CA6842F00102CA6000680B496A
:10138000884208D0B0F1804F05D00949884202D088
:101390000849884204D1816801F00701062903D079
:1013A000016841F00101016000207047002C0140FC
:1013B000000400400008004070B5044690F83C006E
:1013C0000025012817D0012684F83C60022084F80B
:1013D0003D002068826822F0770222F47F4282601A
:1013E0000868502838D00DDC20284FD005DC90B399
:1013F000102811D14AE0022070BD302846D0402884
:101400000AD13BE060282FD070280DD0B0F5805F66
:1014100003D0B0F5005F12D0012584F83D600020B4
:1014200084F83C00284670BDCB68D1E901212068D2
:1014300000F09AFE2068816841F0770109E0CB68EE
:10144000D1E90121206800F08FFE2068816841F415
:1014500080418160E1E719E0CA684968206800F0CE
:1014600095FE5021206806E0CA684968206800F0AF
:101470009EFE6021206800F081FECEE7CA684968C0
:10148000206800F083FE40212068F4E722680146CE
:101490001046F0E7704770B50446006801694FF0E8
:1014A0000005C943890715D4C168C943890711D408
:1014B000E91E0161012020772068806980072046AD
:1014C00002D0FFF7E7FF04E000F098F8204600F0B4
:1014D00096F8257720680169C943490717D4C16880
:1014E000C943490713D46FF004010161022020773A
:1014F0002068806910F4407F204602D0FFF7CAFFC1
:1015000004E000F07BF8204600F079F825772068A9
:101510000169C943090716D4C168C943090712D430
:101520006FF008010161042020772068C0698007FE
:10153000204602D0FFF7AEFF04E000F05FF820463F
:1015400000F05DF8257720680169C943C90617D402
:10155000C168C943C90613D46FF0100101610820A6
:1015600020772068C06910F4407F204602D0FFF742
:1015700091FF04E000F042F8204600F040F82577A3
:1015800020680169C943C90708D1C168C943C907AF
:1015900004D1891E0161204600F032F820680169FB
:1015A000C943090609D4C168C943090605D46FF0C7
:1015B000800101612046FFF73EFE20680169C943B2
:1015C000490609D4C168C943490605D46FF04001F2
:1015D0000161204600F03CF820680169C943890692
:1015E0000BD4C168C943890607D46FF0200101619B
:1015F0002046BDE87040FFF71FBE70BD70477047C2
:10160000016810480268104891420CD10289521CAE
:101610000281028A521C92B20282642A03D30022FF
:10162000028201224270074A48321268914207D171
:101630008169491C81614FF400710448FEF7BEBF07
:10164000704700007401002078000020000C014069
:10165000704770B5040004D094F84100002510B123
:1016600006E0012070BD84F84050204600F024F8C8
:10167000242084F841002068C16821F40051C16031
:10168000204600F0ABFD2068016921F49041016122
:101690002068416921F02A0141612068C16841F454
:1016A0000051C1606564202084F8410084F8420044
:1016B0006563002070BD000030B585B00024009443
:1016C00001940294039400681449884224D1144878
:1016D000816941F480418161816901F48041049113
:1016E000816941F00401816180690E4D00F00400C0
:1016F00004904FF4007000900220019003200390AA
:1017000069462846FEF76AFE2815CDE900046946B9
:1017100028460294FEF762FE05B030BD0038014055
:101720000010024000080140FEE7F8B5044641F011
:1017300080008DF8000017461E46A1880022206810
:10174000FEF744FF4FF4FA652B4601226946A06973
:10175000FFF7AFFBA069FFF749FA0128FAD12B4642
:1017600032463946A069FFF7A4FBA069FFF73EFAAD
:101770000128FAD1A18801222068FEF727FFF8BDD1
:1017800070B50446002100F06DF80A20FEF7F6FD62
:101790000121204600F0A9F805460A20FEF7EEFDDB
:1017A00045F080020121204600F021FA6420FEF776
:1017B000E5FD2046216A00F04BF994F82A102046F6
:1017C00000F09AF994F82B10204600F076F92322C5
:1017D0000C21204600F00BFA204600F0B7F994F8EF
:1017E0002410204600F092F9FF221F21204600F02D
:1017F000FEF994F8250094F82610000100EB410052
:10180000C2B21D21204600F0F2F9204600F0FAF89D
:10181000208D2021020A204600F0E9F994F82820C2
:101820002121204600F0E3F94021204600F05DF838
:1018300040F03F024021204600F0D9F90121204626
:1018400000F010F80120E0610A20FEF797FD422128
:10185000204600F04AF8122802D04FF4CA7070BD3A
:10186000C82070BD70B50C460546012100F03DF85A
:10187000024664B1012C0FD0032C13D0052C17D0D5
:10188000062C1BD0022C1FD0042C23D027E00020D4
:1018900002F0F802E86122E0012002F0F802521C96
:1018A000E8611CE0032002F0F802D21CE86116E0B7
:1018B000052002F0F802521DE86110E0062002F057
:1018C000F802921DE8610AE0022002F0F802921C80
:1018D000E86104E0042002F0F802121DE8612846E5
:1018E000BDE87040012100F082B90EB501F07F0122
:1018F0008DF8081001210A46009101AB02A900F001
:1019000003F89DF804000EBD2DE9F0470E4615467C
:10191000044681889846DDF8209000680022FEF792
:1019200055FE4FF4FA673B462A463146A069FFF759
:10193000C0FAA069FFF75AF90128FAD13B464A4696
:101940004146A069FFF70AFAA069FFF74FF901289D
:10195000FAD1A1882068BDE8F0470122FEF736BE23
:101960002DE9F04100250E46074614462846294633
:1019700001E03154401CA042FBDB01213846FFF757
:1019800071FF12213846FFF7B0FF40061FD5FF2236
:101990001221384600F02BF913213846FFF7A5FF36
:1019A000054610213846FFF7A0FF02460D213846B4
:1019B00000F01DF9AC4200D22546002405E00021CC
:1019C0003846FFF792FF3055641CAC42F7DB052127
:1019D0003846FFF747FF2846BDE8F08110B50446BA
:1019E000818980680022FEF7F1FD0120FEF7C6FC28
:1019F000A1890122A068FEF7E9FDBDE8104064203E
:101A0000FEF7BCBC10B594B0044650220F4968469E
:101A1000FEF714FC94F824100120884001F089FDA1
:101A200094F825206B4603EBC203D3E9002301F0B1
:101A3000F9FB01F04FFD102801DD012100E000213C
:101A4000204600F025F814B010BD0000083600084C
:101A500070B50546C8044411C4F307420621284660
:101A600000F0C5F80520FEF789FCC4F30722072122
:101A7000284600F0BCF80520FEF780FCE2B2082101
:101A8000284600F0B4F8BDE870400520FEF776BCAB
:101A900070B50C4605462621FFF727FF14B140F02C
:101AA000080201E000F0F7022621284600F09FF826
:101AB000BDE870400A20FEF761BC10B52D2901D2A7
:101AC0002D2105E0F02901D9F02106E0782904D87C
:101AD00005222D3991FBF2F103E00A221E31B1FB00
:101AE000F2F1C9B22031CAB20B2100F080F8BDE892
:101AF00010400A20FEF742BC10B50A46092100F04A
:101B000076F8BDE810400A20FEF738BC70B50C46E8
:101B100006460C2901DD0C2402E0072C00DA07241C
:101B20001E21FFF7E2FE05460A20FEF727FC64F3BC
:101B30001F15EAB21E21304600F059F80A20FEF7C0
:101B40001DFC3046BDE87040FFF75CBF10B5044691
:101B50001E21FFF7CAFE40F007021E21204600F0BA
:101B600046F8BDE810400A20FEF708BC0521FFF743
:101B700079BE2DE9F0410F461C46164680460121EC
:101B8000C569FFF76FFE0E214046FFF7AEFE024625
:101B90000D21404600F02BF832462221404600F04D
:101BA00026F833463A4600214046FFF7BEFD0321A2
:101BB0004046FFF757FE12214046FFF796FE00070A
:101BC0000BD5FF221221404600F011F8294640466D
:101BD000FFF748FE0120BDE8F081641E2404240CB8
:101BE000E9D129464046FFF73DFE0020F3E70EB558
:101BF00041F080018DF8081001218DF804200A467B
:101C0000009101AB02A900F001F80EBD2DE9F047EB
:101C10000E461546044681889846DDF820900068F7
:101C20000022FEF7D3FC4FF4FA673B462A463146C2
:101C3000A069FFF73EF9A069FEF7D8FF0128FAD1A5
:101C40003B464A464146A069FFF733F9A069FEF7D3
:101C5000CDFF0128FAD1A1882068BDE8F047012214
:101C6000FEF7B4BC30B581611249CC14A12B02D06F
:101C7000A22B07D00FE04FF4805301608380816076
:101C8000848108E00C4B03609D158580836084810E
:101C900001611915818240F8202F07210171092166
:101CA000417101218171FF2181727821C1720A2164
:101CB000018130BD000C0140000801402DE9F047D2
:101CC00086B00024444800940194029403948169EE
:101CD00041F010018161816901F010010491816975
:101CE00041F020018161816901F020010491816945
:101CF00041F004018161816901F00401049181696D
:101D000041F0080181618069DFF8D08000F00800AF
:101D10004FF400550490002229464046FEF756FC39
:101D2000DFF8BC9040F60317002239464846FEF71C
:101D30004DFCDFF8B0A000224FF4D4515046FEF71E
:101D400045FC0095022601250396CDE9015469461C
:101D50004046FEF743FB00970396CDE901546946E0
:101D60004846FEF73BFB204F0420CDE900076946BB
:101D700002944846FEF732FBA802CDE90007694607
:101D800002945046FEF72AFB4FF4C450CDE90005FB
:101D9000CDE9024669465046FEF720FB6802CDE9D0
:101DA00000050320CDE9024069465046FEF716FBC8
:101DB000002211460820FEF77BFC0820FEF76AFC93
:101DC000002211462820FEF773FC2820FEF762FC53
:101DD00006B0BDE8F087000000100240001001408E
:101DE00000080140000C0140000011100F4810B520
:101DF0000D4901604FF48271416000218160C16032
:101E00004FF400720161C0E905120822C0E9072100
:101E1000416281620A21C162FEF7EBFE002801D017
:101E200072B6FEE710BD000000300140C400002083
:101E30000E4810B50C4901604FF4827141600021D9
:101E40008160C1604FF400720161C0E90512C16197
:101E50000162416281620A21C162FEF7CAFE002866
:101E600001D072B6FEE710BD003800401C01002012
:101E700010B586B00024174800940194029403948E
:101E800004941349059401604721C0E9011440F20C
:101E9000E731C0E9031444618461FFF703FA08B134
:101EA00072B6FEE74FF48050009069460948FFF78C
:101EB00083FA08B172B6FEE7049404A905480594B4
:101EC000FFF7BCF9002801D072B6FEE706B010BDDE
:101ED000002C01407401002010B586B00024174882
:101EE000009401940294039404944FF0804105946B
:101EF00001604721C0E901144FF6FF71C0E90314E6
:101F000080218161FFF7CEF908B172B6FEE74FF488
:101F10008050009069460948FFF74EFA08B172B642
:101F2000FEE7049404A905480594FFF787F9002803
:101F300001D072B6FEE706B010BD0000BC01002063
:101F4000FEE7FEE77047F8B5044640684FF4827339
:101F5000984217D1A0684FF48065B0F5004F01D0CA
:101F6000A8420FD12068066826F040060660606827
:101F7000984207D1A068A84204D100920B460022E3
:101F8000012103E000920B4600228021204600F050
:101F900019F8002804D0606D40F02000606503202F
:101FA000F8BD38B50B46009204460022802100F0AF
:101FB00009F8002804D0606D40F02000606503201F
:101FC00038BD00002DE9F8431E4691468846044678
:101FD000089DFEF701FB401B351AFEF7FDFA074688
:101FE00025480068C0F3CB30684338E0701C37D018
:101FF000FEF7F2FAC01BA84203D215B1009860B3F5
:102000002CE02068416821F0E00141606068B0F593
:10201000827F0BD1A068B0F5004F02D0B0F5806F81
:1020200004D12068016821F040010160A06AB0F588
:10203000005F09D12068016821F400510160206827
:10204000016841F400510160012084F85100002032
:1020500084F850000320BDE8F8830025401E00905E
:102060002068816838EA010004D000214945BDD1CB
:102070000020F0E70121F9E7B00000207047FEF7EB
:10208000B1BA30B58FB028216846FEF709F914219E
:102090000AA8FEF705F901210804CDE90010002483
:1020A000029402250491CDE907504FF4E010099005
:1020B0006846FEF70BFC08B172B6FEE70F20CDE9CB
:1020C0000A054FF48060CDE90C4002210AA80E9465
:1020D000FEF720FB002801D072B6FEE70FB030BD3E
:1020E000704700000148FFF7D6B9000074010020D6
:1020F0000148FFF7D0B90000BC010020F0B502682C
:10210000164B174C174D4FF08047984205D0B842F8
:1021100003D0A04201D0A84203D122F070064A6841
:102120003243984205D0B84203D0A04201D0A84221
:1021300003D122F44074CA6822434C6922F0800221
:10214000224302608A68C2620A688262984201D1B0
:102150000969016301214161F0BD0000002C0140CB
:10216000000400400008004010B5846842EA0322E1
:1021700024F47F440A432243826010BD826822F027
:1021800070020A4342F007018160704710B5036A8C
:10219000046A24F001040462846924F0F00444EA2F
:1021A000021423F00A020A438461026210BD10B5D2
:1021B000036A046A24F010040462846923F0A00313
:1021C00024F4704444EA023243EA0111826101625C
:1021D00010BD0021016041608160704770B5044608
:1021E00000680169E26821F44051114301612169ED
:1021F000A0680843616908432168CA6841F20C631A
:102200009A430243CA6020684169A26921F440717F
:10221000114341611E492068884202D1FEF720FB2C
:1022200001E0FEF70DFB00EBC00101EB001260685E
:1022300064218000B2FBF0F3B3FBF1F36FF01806FA
:102240007343B2FBF0F5B2FBF0F605EB83053223E6
:1022500003EB0515B5FBF1F5B6FBF1F605F0F0055E
:1022600005EB0615B2FBF0F6B2FBF0F0B0FBF1F0B7
:102270006FF01802504306EB800003EB0010B0FB38
:10228000F1F0216800F00F002844886070BD000064
:1022900000380140FEE70000012211460148FEF728
:1022A00095B90000000801400A4601464FF0FF338F
:1022B0000148FEF753BD0000C400002008B501210D
:1022C0006846FFF7F1FF9DF8000008BD00220121DC
:1022D0000148FEF77BB90000000801400A460146AC
:1022E0004FF0FF330148FEF7E4BD0000C4000020BA
:1022F00001B501216846FFF7F1FF08BDF8B5144CA0
:102300000546E068804760698047616AC5F3074019
:10231000C5F3072699B1A26A8AB18DF800008DF83D
:1023200001608DF80250032168469047E0698047BC
:102330000546A0698047206980472846F8BD216A84
:102340008847216A30468847216AE8B28847EDE726
:102350004C0000202DE9F8431A4C05461746E0686A
:102360008846804760698047616AC5F30740C5F3C6
:102370000726A1B1A26A92B18DF800008DF8016024
:102380008DF80250032168469047626A39464046FC
:102390009047A069804720698047BDE8F883216A9B
:1023A0008847216A30468847216AE8B28847002575
:1023B00005E0E069804708F805006D1CADB2BD423C
:1023C000F7D3E6E74C000020F8B5164C05460E465C
:1023D000E068804760698047A26A45F004058AB1D9
:1023E000280C8DF80000280A8DF801008DF80250A5
:1023F0008DF80360042168469047A06980472069F2
:102400008047F8BD216AC5F307408847216AC5F3B4
:1024100007208847216AE8B28847216A3046884702
:10242000EBE700004C000020F8B51A4C05461646B4
:10243000E0680F46804760698047A26A45F004055E
:102440009AB1280C8DF80000280A8DF801008DF84B
:102450000250032168469047A26A314638469047A9
:10246000A069804720698047F8BD216AC5F307400D
:102470008847216AC5F307208847216AE8B2884760
:10248000002504E0216A785D88476D1CADB2B54235
:10249000F8D3E5E74C0000200907090E002804DB0B
:1024A00000F1E02080F80014704700F00F0000F108
:1024B000E02080F8141D70470346002010B5024646
:1024C000491E04E09C5C521C2044C0B2D2B28A4235
:1024D000F8DB10BD70B50446082802D94FF0FF3074
:1024E00070BD4FF4847000EB441005461021FFF7D7
:1024F0006BFF2846FFF702FF0028FAD14FF4027065
:1025000000EB44101F21FFF75FFF0D490120A040A1
:102510004A8882434A808A8882438A800949002007
:1025200021F814000649891D08554FF4427000EB4C
:1025300044142046FFF7E2FE0028FAD1012070BDC6
:1025400000000020B40000202DE9F04114460828C6
:1025500003D94FF0FF30BDE8F0814FF40272274FEE
:1025600002EB401642F6084202EB40137A886FF005
:10257000090C4FF6FF7508293ED2DFE801F004117F
:10258000151822292D37237801218140012B01D0F4
:102590001BB131E01143798026E08A437A8023E041
:1025A000C24002F0010015E041F6087101E041F679
:1025B000086101EB4010FFF7A1FE05EA80202080B2
:1025C00012E020781F2817D800F01F01304609E0DC
:1025D00030460CE0207007E020781F280CD800F06F
:1025E0001F011846FFF7F0FE0120B4E71846FFF779
:1025F00085FE00F01F00EDE76046ACE7000000201C
:102600002DE9F04142F2086101EB401542F20871F8
:10261000002601EB40142846FFF770FE07462046CF
:10262000FFF76CFE00EB072007043F0C09D028469B
:10263000FFF764FE06462046FFF760FE00EB06202B
:1026400086B2BE42E7D13046BDE8F0812DE9F041C7
:1026500042F2080101EB401542F20811002601EB9D
:1026600040142846FFF74AFE07462046FFF746FE7D
:1026700000EB072007043F0C09D02846FFF73EFE79
:1026800006462046FFF73AFE00EB062086B2BE4221
:10269000E7D13046BDE8F08108B5FDF7ABFFCB4888
:1026A000FFF797FDFFF7EDFCFFF708FBFFF79EFB39
:1026B000C648C749D038002601604FF4E131C0E96F
:1026C00001160C21C660C0E904618661C661FEF78F
:1026D000C0FF08B172B6FEE7FFF7CAFBFFF7A8FB21
:1026E000FFF7FAFBB94D0022903D80216E61AE618B
:1026F000EE61AE60EE60B7482E61FDF767FF00F057
:1027000017FC002340F257420221012000F082FB17
:10271000B14C012803D04FF4FA6060810DE04FF412
:102720007A7060818DF800606A4600210120FFF711
:102730000BFF6421A9A000F063F9B04940F27F3794
:10274000A1233A4601F5A470FFF78CFA9F48703830
:10275000FFF744F99D487038FFF712F8A081052073
:10276000FDF70CFEA549A2233A4601F5BA70FFF722
:1027700079FA96484438FFF731F994484438FEF71F
:10278000FFFFE08191484438FFF7F0F98F48AE67CA
:10279000EE671038C5F8806046608660C660A9465E
:1027A000A0F5A870FEF7DCFD9448A030FEF7D8FD38
:1027B000864F4FF06408183FA7F12C0A4FF0010B29
:1027C000206A401C20624FF44A70FFF797FD10B159
:1027D000222804D06CE04FF47A70608168E0A4F89D
:1027E0000A800120FFF70CFF10F0FF004FF00C02F1
:1027F0005ED00C2800D2024677487449801D00F153
:102800000E0300907C39012000F0FCF86F480C2189
:102810007C38FFF751FE6D4D7C3DE97A814238D11D
:102820000020295C3954401CC0B20C28F9D39AF816
:102830001C000090654801214438FFF713F86349F4
:10284000267118394FF47A730C22A1F15800FFF762
:1028500090F9A07060B1606A401C60626748A03067
:102860000068406A218B00EB01415848016008E094
:102870005649002088392A5C0A54401CC0B20C28F2
:10288000F9D3524884F804B044380099FEF7EAFFBF
:102890000EE0C9F814604D4AC9F818600020FF2105
:1028A000883AC9F81C601154401CC0B20C28FAD3F5
:1028B0002078012841D1454926700C390C22A1F11C
:1028C0003800FFF74DF8E07040480C210C38FFF756
:1028D000F3FD3E490C39CA7A824223D1A06A401CDA
:1028E000A062A1F586700068406A228B00EB02426C
:1028F0003648426042680368D21A82600020A1F123
:102900007C020B5C1354401CC0B20C28F9D3E08845
:10291000314B2E49009014330C228839012000F0ED
:10292000B9F90AE0294A00207C3AA2F10C01135CB3
:102930000B54401CC0B20C28F9D321896089814214
:1029400004D3268180212348FDF738FE60780128D2
:102950007FF436AF6670C9F87860C9F87C600025EE
:10296000C9F88060FDF712FC90FBF8F208FB12003A
:102970007855F97A6D1C0844EDB2F8720B2DF1D33D
:1029800012489AF81C5001214438FEF76BFF0F499A
:10299000267118394FF47A730C22A1F15800FFF711
:1029A000E8F8A07050B1606A401C60621348A03023
:1029B0000068406A218B00EB0140E061034884F825
:1029C00004B029464438FEF74DFFF9E6D402002052
:1029D00000380140000C01407800002053746172FF
:1029E00074206C697374656E696E67206F6E2070F9
:1029F0006F7274202564200D0A0000001C01002065
:102A0000704700002DE9FF4F002583B01F46904618
:102A10000446082803D9681E07B0BDE8F08F60019E
:102A20004FF0010A0830FFF769FC834600F00F0001
:102A3000022806D0032804D0042802D06FF0040036
:102A4000EAE7B8F1000F05D0DFF8C49139F81400B7
:102A500018B11EE06FF00D00DEE74FF4427000EB9E
:102A600044160AFA04FA2046FFF7CAFD0546304626
:102A7000FFF744FC30B1674949881AEA010F06D0D4
:102A80001DB106E06FF00300C6E70020C4E7002D8B
:102A9000E9D00BF00701DFF87CA14FF484704FF010
:102AA000800B0AF1060A00EB4416022922D0032902
:102AB0007CD0042952D02946204600F0B1FA29F8EA
:102AC000145030464021FFF77FFC3046FFF716FCDC
:102AD0000028FAD139F81410491B0904090C29F807
:102AE000141003D01AF8041041F001010AF8041080
:102AF000284691E739F814004D4670BB0822694614
:102B0000204600F05DFA30464021FFF75DFC30467C
:102B1000FFF7F4FB0028FAD19DF8000038709DF80B
:102B2000010078709DF80200B8709DF80300F870FD
:102B300010999DF8040008809DF8051001EB002015
:102B4000109908809DF806009DF807105BE02A4662
:102B50002046049900F034FAB3E72AE039F814006B
:102B60004D4630BB02226946204600F029FA304625
:102B70004021FFF729FC3046FFF7C0FB0028FAD1BF
:102B80009DF800009DF801106FF0010202EB00209B
:102B9000084480B240F2EA5125F81400884206D970
:102BA0002046FFF797FC6FF47A7035E702E00AF8E9
:102BB00004B003E039F814004D4630B135F8145034
:102BC00040464545C3D90546C1E706226946204629
:102BD00000F0F6F930464021FFF7F6FB3046FFF7EC
:102BE0008DFB0028FAD19DF8000038709DF8010097
:102BF00078709DF80200B8709DF80300F8709DF899
:102C000004009DF8051001EB002025F81400CEE724
:102C1000B400002000000020054A18B111B1C2E93B
:102C200005017047034850610348906170470000F8
:102C30004C000020D1300008CF300008074A10B502
:102C400013889C05FDD518B111B1C2E9070110BD6B
:102C50000348D0610348106210BD00004C00002002
:102C6000A7310008AD310008074A10B513889C054C
:102C7000FDD518B111B1C2E9090110BD0348506278
:102C80000348906210BD00004C000020A5310008F0
:102C9000AB3100082DE9F0471E46DDF820801546CF
:102CA0008A460446082803D94FF0FF30BDE8F08774
:102CB000670108374FF001093846FFF71FFB00F0A6
:102CC0000F00022806D0032804D0042802D06FF099
:102CD0000400EBE75DB13078717801EB0020B1784A
:102CE00001EB0020F17811EB002003D00AE06FF037
:102CF0000D00DBE73846FFF701FB400702D46FF019
:102D00000B00D3E7B8F1000F07D13846FFF7F6FA0A
:102D1000400702D46FF00A00C8E74FF4427000EB9E
:102D200044100746FFF7EAFA422806D0222804D0CA
:102D3000322802D06FF00600B8E740F6084000EBFA
:102D4000441004223146FFF76FFB41F208004FEABE
:102D5000182100EB4410FFF737FB41F2081008F090
:102D6000FF0100EB4410FFF72FFB41F6087000EB6A
:102D70004410FFF7C3FA4FF6FF7101EA8020854245
:102D800000D90546DFF8888009FA04F62046FFF7E7
:102D90005DFC81463846FFF7B1FA38B1B8F8020059
:102DA000064206D04D4504D900207FE76FF00300AE
:102DB0007CE74D45EAD82A465146204600F051F9B5
:102DC0004FF4847000EB441006462021FFF7FCFA14
:102DD0004FF4027000EB44143046FFF78FFA0028DE
:102DE000FAD12046FFF78AFA00F01F00C10605D588
:102DF00020461021FFF7E8FA284657E70007F0D5EC
:102E000020460821FFF7E0FA6FF00C004EE70000C3
:102E1000000000202DE9F8431D4617460E460446E3
:102E2000082803D94FF0FF30BDE8F883012E08D001
:102E3000022E0ED0032E0CD0042E0AD06FF0040008
:102E4000F2E7042269464FF47060FFF783FA0098B6
:102E500048B169076FF00500E6D49DB1012E05D099
:102E6000022E0FD106E06FF00200DDE715F0210F12
:102E7000DAD007E0A90601D52906D5D5E90601D59E
:102E80002906D1D52046FFF725FB600105F0F001AA
:102E90004FF0010831430830FFF796FA224E57B938
:102EA0003788781C80B2A0F57F413080F03902D19C
:102EB0004FF4404030804FF48160390A00EB4410F9
:102EC000FFF782FA4FF4A160F9B200EB4410FFF76C
:102ED0007BFA4FF4847000EB441007460121FFF7A2
:102EE00073FA3846FFF70AFA0028FAD108FA04F014
:102EF000718805F001028143A2400A437280B188C3
:102F00008143B1800949002021F814000649891D38
:102F100008554FF4427000EB44152846FFF7EEF9D0
:102F20000028FAD060B27FE700000020B400002043
:102F300010B515A0FFF764FD194C002202212046B0
:102F4000FDF744FB0120FDF719FA0122022120467A
:102F5000FDF73CFB4FF47A70FDF710FA1149124867
:102F6000FFF75AFE11491248FFF768FE114912484F
:102F7000FFF77AFE1149084600F0ABF80F48BDE8AC
:102F80001040083000F0E2B80D0A537461727420EA
:102F90004E65772053657373696F6E210D0A0000CB
:102FA0000008014099220008CD220008F122000803
:102FB000BD220008DD220008A9220008140000201C
:102FC0002DE9F0475FEA02088946064626D042F618
:102FD000081000EB46152846FFF790F9074642F621
:102FE000080000EB46142046FFF788F907EB0020A5
:102FF00087B2380200EB4610424649461830FFF7C8
:10300000A9F907EB080086B2310A2046FFF7DCF980
:10301000F1B22846BDE8F047FFF7D6B9BDE8F08722
:103020002DE9F041044642F6081000EB44150E4627
:103030002846FFF763F9074642F6080000EB441400
:103040002046FFF75BF907EB0020304486B2310AD7
:103050002046FFF7B9F9F1B22846BDE8F041FFF785
:10306000B3B92DE9F0475FEA02088946064626D043
:1030700042F2085000EB46152846FFF73FF9074695
:1030800042F2084000EB46142046FFF737F907EB01
:10309000002087B2380200EB461042464946103005
:1030A000FFF7C2F907EB080086B2310A2046FFF7A6
:1030B0008BF9F1B22846BDE8F047FFF785B9BDE8C6
:1030C000F08700787047017070477047704770470D
:1030D00070472DE9F0410D460646002400F067F8E0
:1030E0004FF0FF38AEB10022B05C204444B2102C47
:1030F00017DC521C52B2082AF6DB002441F608778E
:10310000315D07EB4410FFF75FF9641C64B2082CD3
:10311000F6DBCDB1002108462A5C114449B21029E2
:1031200002DD4046BDE8F081401C40B20828F3DBD8
:10313000002441F60866295D06EB4410FFF744F9C8
:10314000641C64B2082CF6DB0020EBE710B50446E3
:10315000014606224FF41060FFF766F9042204F1DD
:103160000E019001FFF760F9042204F10A014FF407
:10317000A060FFF759F90422A11D4FF47060FFF71A
:1031800053F90748A17C0170E17C4170217D817079
:10319000617DC1700249A07D491E087010BD00000C
:1031A0004500002070470020704770477047F0B519
:1031B00085B04FF41064062269462046FFF7CAF82E
:1031C0000422950102A92846FFF7C4F84FF4A0662F
:1031D000042203A93046FFF7BDF84FF470670422BC
:1031E00004A93846FFF7B6F880210020FFF7ECF875
:1031F0000020FFF783F8062269462046FFF714F9FE
:10320000042202A92846FFF70FF9042203A9304639
:10321000FFF70AF9042204A93846FFF705F905B0BB
:10322000F0BD00002DE9C04130B4DFF8A0C23CEA97
:10323000111418BF3CEA131400F0EC8081EA030576
:103240001CEA111444EAD57418BF1CEA131500F0E7
:10325000C780A4EB05044FF0004545EAC12145EACB
:10326000C32341EA505143EA525304F17F74994217
:1032700004F500344FEAC0204FEAC22208BF904252
:1032800000F09C804FEA13650FF24016765D4FEA1E
:10329000134506FB05F7C7F1807706FB07F74FEAF2
:1032A000D737A7FB03687642C8F58038A7FB06CE60
:1032B00038BFA8F1010807FB08E64FF0000EA6FB97
:1032C000028CE6FB03CEDCF1000CCEF1004E38BFE1
:1032D000AEF1010EA6FB0C584FF000074FF00005B1
:1032E000E6FB0E87A1FB08C6A0FB07CE16EB0E0679
:1032F00045F10005E1FB076515F1E04E7EBFA4F541
:1033000080345FEA46066D4116F1800745F10005FD
:103310004FEA17274FEA066647EA0567A6F1DE4639
:10332000B6F1805F4FEA15251FD9384624F0010C0D
:1033300005EBC471BCF1FE6F01EB0C1102D8F0BCBF
:10334000BDE8008124425CBF01F5801E9EEAC47F77
:1033500002D4F0BCBDE80081244238D4F0BCA1F115
:10336000C041BDE8004100F049B94FEAD22242EA2B
:1033700043524FEAD323A7FB02864FEAD02040EA0C
:10338000415007FB03661EEA0E0F4FEAD12105FBF1
:10339000026658BFA6EB0056B6EB00564FEA520E37
:1033A0004EEAC37E18EB0E0E56EB530EBDD518EB4E
:1033B00002085E417F1C55F10005B6E74FF4801509
:1033C0004FF000074FF000064FF00008ADE7F0BCEB
:1033D0004FF0000001F1C04101F00041BDE8008163
:1033E00011EA0C1F0CEA131500D00CE013EA0C1FB5
:1033F00000F025804FF00000F0BC81EA030101F0ED
:103400000041BDE80081F0BCBDE8004181EA030154
:1034100000F0F4B8F0BCBDE8004170B500F0A0F8D1
:10342000097EFC3E00F007B881EA03014FF000007E
:1034300001F00041704781EA030100F0DFB8F0BC01
:10344000BDE800414FF0000021497047FFFDFBF946
:10345000F7F5F4F2F0EEEDEBE9E8E6E4E3E1E0DEC7
:10346000DDDBDAD8D7D5D4D3D1D0CFCDCCCBCAC839
:10347000C7C6C5C4C2C1C0BFBEBDBCBBBAB9B8B760
:10348000B6B5B4B3B2B1B0AFAEADACABAAA9A8A853
:10349000A7A6A5A4A3A3A2A1A09F9F9E9D9C9C9B21
:1034A0009A999998979796959594939392919190CC
:1034B0008F8F8E8E8D8C8C8B8B8A8989888887875D
:1034C0008685858484838382828181800000FF07D2
:1034D0000000F87F4FEA41034FEA5353A3F580639E
:1034E000D3F11E03C8BFD3F1210C0CDD4FF0004215
:1034F00042EAC12242EA505232FA03FC8CEAE17CF1
:10350000ACEBE1707047102BC4BF0020704703F58F
:10351000787CBCF1FF3F04D06FF0004282EA2100CA
:10352000704770B500F01CF8499224800020704765
:10353000F2E710F0004248BF4042B0FA80F310FAC0
:1035400003F10AD0C3F11D0303F580634FEA415034
:1035500002EB035202EBD12170474FF0000070479D
:103560000EF1020E2EF0030E5EF8046B364205D407
:10357000012A43EB030515F5001F12D8012841EB82
:10358000010C1CF5001F0CD80ED14FEAD17C15F5AB
:10359000001F0CEB4C0C0CF1020C08BF4CEBD37C65
:1035A00004E04FF0080C01E04FEAD37C0CEB4C0533
:1035B00026FA05F606F00706B6F1040C06D20EEB65
:1035C000860CBDE870404CF0010C6047DFE80CF061
:1035D000090B02024FF000414FF00000A1F500215D
:1035E00070BD19461046012851EB010418BFD4F5EF
:1035F000001484BF002001F0004170BD0808A0F550
:1036000000114FEA310170473333333333331F40F6
:10361000CDCCCCCCCCCC24403333333333332F40DC
:10362000CDCCCCCCCCCC34400000000000403F409E
:103630009A99999999D944400000000000404F4060
:103640000000000000405F400000000000406F40AC
:103650000000000000407F4001020203040506074D
:1036600008090A0B0C0D0E0F1010000000000000DE
:10367000000001020304060708090000000001021F
:1036800003040000A436000800000020B40000007D
:103690002801000858370008B40000207409000011
:1036A0004401000800C0000000000000000000000D
:1036B00000005704C0A801640202020202020202D2
:1036C000C0A801670457C0A80167FFFFE100C0A8B8
:1036D00001010808080801020202020202020202B5
:1036E00002020202020202000000000000000000CC
:1036F000010257353530300000000000CB300008A3
:10370000CD300008D1300008CF300008C3300008A9
:10371000C730000800000000000000000000CCCC12
:103720000100570400000000EE00EE000000000061
:10373000C0A80164000000000000000000000000BC
:103740000000000000000000010000001000000068
:08375000000000000024F40059
:04000005080000ED02
:00000001FF
