:020000040800F2
:10000000B809002089010008E31E00083117000824
:10001000E11E0008F502000835220008000000007B
:100020000000000000000000000000001D2000088B
:10003000F702000800000000E51E00081F2000086D
:10004000A3010008A3010008A3010008A301000800
:10005000A3010008A3010008A3010008F902000899
:10006000A3010008A3010008A3010008A3010008E0
:10007000A3010008A3010008A3010008A3010008D0
:10008000A3010008A3010008A3010008A3010008C0
:10009000A3010008A3010008A3010008A3010008B0
:1000A000A301000885200008A3010008A30100089F
:1000B00091200008A3010008A3010008A301000883
:1000C000A3010008A3010008A3010008A301000880
:1000D000A3010008A3010008A3010008A301000870
:1000E000A3010008A3010008A301000800F002F822
:1000F00000F03AF80AA090E8000C82448344AAF188
:100100000107DA4501D100F02FF8AFF2090EBAE885
:100110000F0013F0010F18BFFB1A43F0010318473B
:10012000CC350000EC350000103A24BF78C878C107
:10013000FAD8520724BF30C830C144BF04680C60ED
:10014000704700000023002400250026103A28BF35
:1001500078C1FBD8520728BF30C148BF0B60704739
:100160001FB51FBD10B510BD00F08AF81146FFF78E
:10017000F7FF02F0A9FA00F0A8F803B4FFF7F2FFC6
:1001800003BC00F0B1F80000094880470948004767
:10019000FEE7FEE7FEE7FEE7FEE7FEE7FEE7FEE737
:1001A000FEE7FEE704480549054A064B7047000094
:1001B00081200008ED000008B8030020B8090020E5
:1001C000B8050020B805002010B5203AC0F00B801B
:1001D000B1E81850203AA0E81850B1E81850A0E84B
:1001E0001850BFF4F5AF5FEA027C24BFB1E81850A5
:1001F000A0E8185044BF18C918C0BDE810405FEA15
:10020000827C24BF51F8043B40F8043B08BF704790
:10021000D20728BF31F8023B48BF11F8012B28BF95
:1002200020F8023B48BF00F8012B70474FF0000256
:1002300000B5134694469646203922BFA0E80C50DC
:10024000A0E80C50B1F12001BFF4F7AF090728BFB7
:10025000A0E80C5048BF0CC05DF804EB890028BF33
:1002600040F8042B08BF704748BF20F8022B11F05C
:10027000804F18BF00F8012B7047704770477047D8
:10028000754600F02BF8AE4605006946534620F04F
:100290000700854618B020B5FFF784FFBDE8204071
:1002A0004FF000064FF000074FF000084FF0000B32
:1002B00021F00701AC46ACE8C009ACE8C009ACE8E5
:1002C000C009ACE8C0098D46704710B50446AFF3CD
:1002D00000802046BDE81040FFF74FBF0048704740
:1002E000540300207047000001491820ABBEFEE710
:1002F00026000200FEE77047022000F025B800004B
:1003000070B5044600F02AF90546601C02D0044886
:100310000078044400F022F9401BA042FAD370BDDB
:10032000B80000200649898A814207D10548C16A80
:10033000491CC1620178012900D141707047000059
:10034000EC0200207C000020044910B50A6802423B
:1003500002D00860FFF7E6FF10BD00001404014062
:100360002DE9F84FDFF8B8910024A9F1040B2346DA
:100370000F2709F1040AABF1040EC9E00125A540DD
:100380002A40AA427DD1674ED1F804C0ACEB0608E2
:10039000B44532D014DCBCF1030F3AD009DCBCF117
:1003A000000F2AD0BCF1010F1CD0BCF1020F31D1DB
:1003B0001DE0BCF1110F17D0BCF1120F2AD119E0CA
:1003C000B8F5881F19D006DCB8F5803F15D0B8F510
:1003D000801F1FD111E0B8F5001F0ED0B8F5041F23
:1003E00018D10AE0CB6815E0CB681B1D12E0CB6882
:1003F00008330FE0CB680C330CE08B682BB1012B7A
:100400004FF0080303D0456104E0042302E00561D6
:1004100000E00023FF2A01D8064601E000F10406AF
:100420004FEA840501D9A5F12005D6F8008007FA26
:1004300005FC28EA0C0803FA05F548EA0508C6F8A1
:1004400000804D68ED0062D5374DAE6946F001067B
:10045000AE61AD6924F0030605F001050095334D4A
:1004600006EB050CDCF80850A607360F07FA06F86D
:1004700025EA0805DFF8B880404503D14FF00008B1
:1004800017E044E0DFF8AC80404502D14FF00108AE
:100490000FE0DFF8A480404502D14FF0020808E0E9
:1004A000DFF89880404502D14FF0030801E04FF09B
:1004B000040808FA06F848EA0508CCF808804D68F0
:1004C000D9F80060ED024D4601D5164300E0964391
:1004D0002E604D68DAF80060AD02554601D516432E
:1004E00000E096432E604D68DBF80060AD035D468A
:1004F00001D5164300E096432E604D68DEF800609B
:10050000ED03754601D5164300E096432E60641C4A
:100510000D682A46E5407FF431AFBDE8F88F000052
:1005200008040140000011100010024000000140CA
:1005300000080140000C014000100140001401407F
:10054000C26821EA02030A4043EA0241016170479E
:100550000AB1016170470904FBE7000001488068A7
:1005600070470000B80000200248816802781144FA
:1005700081607047B8000020074810B5016841F05D
:1005800010010160032000F075F80F2000F006F85C
:1005900000F024F8002010BD0020024070B50D4D81
:1005A00004464FF47A712878B1FBF0F00A490968E3
:1005B000B1FBF0F000F0EDFD48B9102C07D200229D
:1005C0002146501E00F036F800206C6070BD0120FE
:1005D00070BD0000B8000020C40000200C4808B521
:1005E000816941F001018161816901F0010100919E
:1005F000C16941F08051C161C06900F08050009034
:100600000448416821F0E06141F00071416008BD9B
:100610000010024000000140002809DB00F01F022A
:10062000012191404009800000F1E020C0F8001154
:1006300070470000F0B40E4B1B680C46C3F3022356
:10064000C3F10705042D00D90425191D072901D27E
:10065000002300E0DB1E012606FA05F1491E2140B9
:1006600099409E40761E16403143F0BC01F0E4BE36
:100670000CED00E0064900F0070208684FF6FF03A2
:10068000184040EA0220034A104308607047000007
:100690000CED00E00000FA052DE9F0470F460500DB
:1006A00061D0434E306800F00700B84209D230688C
:1006B00020F0070038433060306800F00700B8428F
:1006C00051D128683B4C810712D5400703D560689B
:1006D00040F4E06060602878000703D5606840F46B
:1006E000605060606068A96820F0F00008436060B6
:1006F0002878C00728D06868012810D0216802280F
:1007000010D0890700292EDA616821F00301014326
:100710006160FFF723FF804641F288390DE02168D0
:100720008903EFE78901EDE7FFF718FFA0EB080168
:10073000494502D90320BDE8F0876068696800F088
:100740000C00B0EB810FEFD1306800F00700B84229
:100750000BD9306820F0070038433060306800F073
:100760000700B84201D00120E5E72878400705D509
:100770006068E96820F4E06008436060287800075A
:1007800006D56068296920F4605040EAC1006060C5
:1007900000F038F86168084AC1F30311515CC840A1
:1007A0000649086006480068FFF7F8FE0020C2E727
:1007B0000020024000100240D2360008C400002091
:1007C000BC0000200448054900684968044AC1F398
:1007D0000221515CC8407047C40000200010024054
:1007E000E23600080448054900684968044AC1F334
:1007F000C221515CC8407047C40000200010024074
:10080000E23600080E4A51680E4801F00C03042B32
:1008100011D0082B0FD10C48C1F38343C903C05C2E
:100820000AD55168084AC1F34041921E515C054AFD
:100830005043B0FBF1F07047044948437047000053
:100840000010024000127A00C236000800093D0084
:100850002DE9F84F040070D02078C04DC00749D072
:100860006868C0F38100012807D06868C0F3810080
:10087000022809D16868C00306D52868800339D5E5
:1008800060680028E7D035E06068B0F5803F0BD0A5
:1008900010B1B0F5A02F11D0286820F48030286066
:1008A000286820F4802002E0286840F48030286026
:1008B000606890B1FFF752FE06460AE0286840F4EF
:1008C00080202860F0E700BFFFF748FE801B642807
:1008D00073D828688003F7D50CE0FFF73FFE064683
:1008E00005E000BFFFF73AFE801B6428F0D82868B7
:1008F0008003F7D420789A4E80074FF001094FF01B
:10090000000839D5686810F00C0F07D06868C0F38C
:100910008100022809D16868C00306D428688007CE
:1009200014D52069012808D110E02069B0B1C6F8BB
:100930000090FFF713FE074605E00AE1FFF70EFE01
:10094000C01B0228C4D828688007F7D528686169C9
:1009500020F0F80040EAC10028600DE0C6F80080F1
:10096000FFF7FCFD074604E0FFF7F8FDC01B022877
:1009700023D828688007F7D4207800072CD5794839
:10098000A169D9B1C0F80090FFF7E8FD074604E07F
:10099000FFF7E4FDC01B02280FD8686A8007F7D56F
:1009A00071484FF4FA510068B0FBF1F0009000BFBD
:1009B0000098411E0091FAD20EE080E0C0F800805D
:1009C000FFF7CCFD074604E0FFF7C8FDC01B022877
:1009D00075D8686A8007F7D42078400760D5E86941
:1009E0000027C00008D4E86940F08050E861E86959
:1009F000012700F0805000905C480168C90513D4BD
:100A00000168834641F480710160FFF7A7FD8246CB
:100A100006E000BFFFF7A2FDA0EB0A0064284ED855
:100A2000DBF80000C005F5D5E06801280AD008B160
:100A3000052813D0286A20F001002862286A20F0D7
:100A4000040002E0286A40F001002862E06841F2F8
:100A5000883B98B1FFF782FD82460BE0286A40F0A0
:100A600004002862EEE700BFFFF778FDA0EB0A0163
:100A700059455AD8286A8007F6D50CE0FFF76EFD75
:100A8000824605E0FFF76AFDA0EB0A0159454CD804
:100A9000286A8007F6D41FB1E86920F08050E86129
:100AA000E06988B36968C1F38101022944D0022852
:100AB000C6F8608004D0FFF751FD044638E034E00A
:100AC000FFF74CFD074604E0FFF748FDC01B022876
:100AD0002BD828688001F7D4206AB0F5803F05D173
:100AE0006868A16820F4003008436860D4E9080110
:100AF0000843696821F4741108436860C6F860907F
:100B0000FFF72CFD044606E025E000BFFFF726FDB9
:100B1000001B022809D828688001F7D51BE000BF18
:100B2000FFF71CFD001B022802D90320BDE8F88F47
:100B300028688001F4D40EE00128F7D06868226AA2
:100B400000F48031914204D1616A00F4701088424F
:100B500001D00120EAE70020E8E700000010024091
:100B60000000424280044242C40000200070004065
:100B700090F85100704770B5040009D0606A0025F4
:100B800040B125616561A56294F8510040B10CE067
:100B9000012070BD6068B0F5827FF4D0E561F2E7B6
:100BA00084F85050204600F03FF8022084F85100AD
:100BB0002068016821F040010160A088218900F4CB
:100BC000827001F404410843A18901F400610843E3
:100BD000217C01F002010843217D01F0010108435D
:100BE000218B01F400710843217F01F03801084393
:100BF00094F8201001F080010843218D01F4005188
:100C0000084321680860A069042101EA10402168B6
:100C100048602068C16921F40061C16165650120F7
:100C200084F85100002070BD30B585B000240094D8
:100C3000019402940394254D036825480221032260
:100C4000AB421AD1836943F480538361836903F40F
:100C500080530493836943F00403836180691D4DCD
:100C600000F004000490A020CDE900010392694641
:100C70002846FFF775FB40201EE0174DAB4222D1FE
:100C8000C36943F48043C361C36903F4804304939D
:100C9000836943F0080383618069104D00F0080008
:100CA00004904FF42040CDE90001039269462846A4
:100CB000FFF756FB4FF48040CDE900046946284613
:100CC0000294FFF74DFB05B030BD0000003001403D
:100CD000001002400008014000380040000C0140B4
:100CE0002DE9F84F044690F85100984616460F46F5
:100CF0000025012801D0022598E060684FF0040B20
:100D0000B0F5827F01D1A068F8B194F850000128B5
:100D100026D04FF0010984F85090FFF71FFC82465F
:100D2000002F7FD0002E7DD084F851B00020606568
:100D3000A763A687E6872063A086E08620646064B8
:100D4000A068B0F5004F0DD016E084F851B01346FE
:100D50000A462046CDF8008000F024F9BDE8F88F5F
:100D60000220FBE72068016821F040010160206853
:100D7000016821F48041016020680168490603D4BC
:100D8000016841F040010160E068D8B13BE02068B3
:100D90008168C90709D0007BA16B0870A06B401C5B
:100DA000A063E08F401EE0870CE0FFF7D7FBA0EBCD
:100DB0000A01414503D3B8F1FF3F03D006E0B8F183
:100DC000000F03D0E08F0028E1D11FE003252BE0C6
:100DD00020688168C90709D0C068A16B0880A06B32
:100DE000801CA063E08F401EE0870CE0FFF7B6FB9D
:100DF000A0EB0A01414503D3B8F1FF3F03D0E5E77B
:100E0000B8F1000FE2D0E08F0028E1D15246414610
:100E1000204601F068F808B120206065606D00E0B0
:100E200000E008B1012501E084F85190002084F829
:100E30005000284692E72DE9F84F044690F85000FC
:100E40000026984615468A4601280CD0012784F8CA
:100E50005070FFF783FB814694F85100B346012898
:100E600004D002269AE00220BDE8F88FBAF1000F04
:100E70006FD0002D6DD0032084F85100C4F854B019
:100E8000C4F830A0A586E586C4F838B0A4F83CB014
:100E9000A4F83EB0C4F844B0C4F840B0A068B0F5BF
:100EA000004F09D12068016821F0400101602068ED
:100EB000016841F48041016020680168490603D45B
:100EC000016841F040010160E068B0F5006F6068C2
:100ED00003D058B3012D29D049E008B1012D1FD10D
:100EE000206B21680088C86006E020688168890757
:100EF00009D5216B0988C160206B801C2063E08EBE
:100F0000401EE0860CE0FFF729FBA0EB09014145FC
:100F100003D3B8F1FF3F03D006E0B8F1000F03D0D0
:100F2000E08E0028E1D125E0032635E0206B216822
:100F30000078087306E02068816889070AD5216B6C
:100F400009780173206B401C2063E08E401EE08610
:100F50000DE01FE0FFF702FBA0EB0901414503D3C1
:100F6000B8F1FF3F03D0DFE7B8F1000FDCD0E08E2F
:100F70000028E0D14A464146204600F0E2FF08B191
:100F800020206065A06818B92068C168806800905A
:100F9000606D08B1012601E084F8517084F850B00A
:100FA000304661E72DE9FF4F81B0044690F85000CC
:100FB00000260E9F1D4693464FF0010901280FD0D1
:100FC0004FF0010A84F850A0FFF7C8FA804694F861
:100FD0005100616801280DD0B1F5827F08D103E08E
:100FE000022005B0BDE8F08FA16809B9042801D03E
:100FF0000226C9E00298002865D0BBF1000FFBD0A3
:10100000002DF9D094F85100042802D0052084F86E
:10101000510000206065C4F838B0E587A5870299C3
:101020002163E586A586206460642068016849061E
:1010300003D4016841F040010160E068B0F5006F41
:10104000606803D0F0B3012D47D081E008B1012DD5
:101050003CD1206B21680088C860206B801C206315
:10106000E08E401EE08631E02068816889070FD558
:10107000E18E69B1B9F1010F0AD1216B0988C16014
:10108000206B801C2063E08E401EE0864FF000093C
:1010900020688168C9070CD0E18F51B1C068A16B8D
:1010A0000880A06B801CA063E08F401EE0874FF09B
:1010B0000109FFF753FAA0EB0800B84206D3781CE9
:1010C00004D001E009E05BE003265BE0E08E00284D
:1010D000CAD1E08F0028C7D140E0206B216800789A
:1010E0000873206B401C2063E08E401EE0862FE0DA
:1010F0002068816889070FD5E18E69B1B9F1010FC8
:101100000AD1216B09780173206B401C2063E08EAB
:10111000401EE0864FF0000920688168C9070CD0A6
:10112000E18F51B1C068A16B0870A06B401CA06337
:10113000E08F401EE0874FF00109FFF70FFAA0EBA8
:101140000800B84202D3781C02D0BAE7002FB8D00A
:10115000E08E0028CCD1E08F0028C9D14246394624
:10116000204600F0EEFE18B10126202060650BE05D
:10117000A06818B92068C16880680090606D08B1E7
:10118000012601E084F851A0002084F85000304688
:1011900027E710B5401EB0F1807F01D3012010BDBC
:1011A0004FF0E02460610F21601701F045F9002045
:1011B000A06107202061002010BD7047704700002B
:1011C00070B590F83C20012A26D0012480F83C40DC
:1011D000022280F83D2003685A689D6822F070065C
:1011E0000A6832435A600D4B02689A4208D0B2F145
:1011F000804F05D00A4B9A4202D00A4B9A4204D142
:10120000496825F080031943916080F83D40002132
:1012100080F83C10084670BD022070BD002C0140D3
:10122000000400400008004010B5040003D094F80A
:101230003D0010B107E0012010BD002084F83C0003
:10124000204600F01FF8022084F83D00211D206890
:1012500000F024FF012084F8460084F83E0084F862
:101260003F0084F8400084F8410084F8420084F88C
:10127000430084F8440084F8450084F83D000020D1
:1012800010BD000008B5154A0168154891420ED1FD
:10129000816941F4006181618069002200F400608D
:1012A000009011461920FFF7C5F9192010E0B1F19F
:1012B000804F11D1C16941F00101C161C0690022B3
:1012C00000F00100009011461C20FFF7B3F91C202C
:1012D000BDE80840FFF7A0B908BD0000002C0140A0
:1012E0000010024090F83D10012901D00120704704
:1012F000022180F83D100168CA6842F00102CA600C
:1013000000680B49884208D0B0F1804F05D00949E8
:10131000884202D00849884204D1816801F007015F
:10132000062903D0016841F00101016000207047E7
:10133000002C0140000400400008004070B5044645
:1013400090F83C000025012817D0012684F83C6065
:10135000022084F83D002068826822F0770222F49F
:101360007F4282600868502838D00DDC20284FD09A
:1013700005DC90B3102811D14AE0022070BD30285E
:1013800046D040280AD13BE060282FD070280DD0ED
:10139000B0F5805F03D0B0F5005F12D0012584F86E
:1013A0003D60002084F83C00284670BDCB68D1E940
:1013B0000121206800F0A8FE2068816841F07701D3
:1013C00009E0CB68D1E90121206800F09DFE20688A
:1013D000816841F480418160E1E719E0CA684968A9
:1013E000206800F0A3FE5021206806E0CA68496822
:1013F000206800F0ACFE6021206800F08FFECEE790
:10140000CA684968206800F091FE40212068F4E72E
:10141000226801461046F0E7704770B50446006840
:1014200001694FF00005C943890715D4C168C94354
:10143000890711D4E91E01610120207720688069A5
:101440008007204602D0FFF7E7FF04E000F098F89D
:10145000204600F096F8257720680169C9434907BE
:1014600017D4C168C943490713D46FF0040101615F
:10147000022020772068806910F4407F204602D047
:10148000FFF7CAFF04E000F07BF8204600F079F88F
:10149000257720680169C943090716D4C168C94383
:1014A000090712D46FF00801016104202077206839
:1014B000C0698007204602D0FFF7AEFF04E000F0CD
:1014C0005FF8204600F05DF8257720680169C94380
:1014D000C90617D4C168C943C90613D46FF01001F7
:1014E0000161082020772068C06910F4407F204601
:1014F00002D0FFF791FF04E000F042F8204600F030
:1015000040F8257720680169C943C90708D1C16837
:10151000C943C90704D1891E0161204600F032F891
:1015200020680169C943090609D4C168C94309068D
:1015300005D46FF0800101612046FFF73EFE206870
:101540000169C943490609D4C168C943490605D49C
:101550006FF040010161204600F058F820680169F1
:10156000C94389060BD4C168C943890607D46FF003
:10157000200101612046BDE87040FFF71FBE70BD2D
:101580007047704770B51F490546006809681E4CD2
:1015900088422DD1A08B4EF66022401C81B20020E3
:1015A000A18391420AD3A083A17A491CC9B2A17236
:1015B0003C2903D3A072617A491C6172E18B491CFA
:1015C0008AB20121E283B2F5FA6F01D3E083E172BE
:1015D000228A521C2282628A521C92B26282B2F524
:1015E0007A7F01D36082A17000F054FF00F034FFD5
:1015F0000449286848310968884202D1606A401C61
:10160000606270BD880100207C000020704770B5CA
:10161000040004D094F84100002510B106E0012038
:1016200070BD84F84050204600F024F8242084F84F
:1016300041002068C16821F40051C160204600F0DB
:101640009DFD2068016921F4904101612068416994
:1016500021F02A0141612068C16841F40051C16054
:101660006564202084F8410084F84200656300200E
:1016700070BD000070B586B00024009401940294FF
:10168000039403682648254E022103220515B34220
:101690001ED1836943F480438361836903F48043EB
:1016A0000493836943F00403836180691D4E00F055
:1016B000040004900802CDE9000103926946304617
:1016C000FEF74EFECDE9005469463046029420E014
:1016D000154EB3421FD1C36943F48023C361C3696C
:1016E00003F480230493836943F0080383618069D2
:1016F000CDE9005100F00800CDE903200B4D69460B
:101700002846FEF72DFEE814CDE900046946284678
:101710000294FEF725FE06B070BD000000380140BF
:10172000001002400008014000480040000C014049
:10173000FEE7F8B5044641F080008DF8000017463A
:101740001E46A18800222068FEF702FF4FF4FA65CA
:101750002B4601226946A069FFF76DFBA069FFF7E0
:1017600007FA0128FAD12B4632463946A069FFF71D
:1017700062FBA069FFF7FCF90128FAD1A1880122D8
:101780002068FEF7E5FEF8BD70B50446002100F0C4
:101790006DF80A20FEF7B4FD0121204600F0A9F8FB
:1017A00005460A20FEF7ACFD45F0800201212046E7
:1017B00000F028FA6420FEF7A3FD2046216A00F01D
:1017C0004BF994F82A10204600F09AF994F82B105F
:1017D000204600F076F923220C21204600F012FA70
:1017E000204600F0B7F994F82410204600F092F952
:1017F000FF221F21204600F005FA94F8250094F8F6
:101800002610000100EB4100C2B21D21204600F06D
:10181000F9F9204600F0FAF8208D2021020A20462E
:1018200000F0F0F994F828202121204600F0EAF990
:101830004021204600F05DF840F03F024021204664
:1018400000F0E0F90121204600F010F80120E061ED
:101850000A20FEF755FD4221204600F04AF81228E2
:1018600002D04FF4CA7070BDC82070BD70B50C4670
:101870000546012100F03DF8024664B1012C0FD06D
:10188000032C13D0052C17D0062C1BD0022C1FD0F4
:10189000042C23D027E0002002F0F802E86122E0C7
:1018A000012002F0F802521CE8611CE0032002F063
:1018B000F802D21CE86116E0052002F0F802521D81
:1018C000E86110E0062002F0F802921DE8610AE0EB
:1018D000022002F0F802921CE86104E0042002F009
:1018E000F802121DE8612846BDE87040012100F0B1
:1018F00089B90EB501F07F018DF8081001210A4663
:10190000009101AB02A900F003F89DF804000EBDA0
:101910002DE9F0470E461546044681889846DDF8C5
:10192000209000680022FEF713FE4FF4FA673B4652
:101930002A463146A069FFF77EFAA069FFF718F939
:101940000128FAD13B464A464146A069FFF7C8F94B
:10195000A069FFF70DF90128FAD1A1882068BDE838
:10196000F0470122FEF7F4BD2DE9F04100250E46B7
:10197000074614462846294601E03154401CA0423F
:10198000FBDB01213846FFF771FF12213846FFF7D4
:10199000B0FF40061FD5FF221221384600F032F971
:1019A00013213846FFF7A5FF054610213846FFF7FB
:1019B000A0FF02460D21384600F024F9AC4200D2C7
:1019C0002546002405E000213846FFF792FF3055F8
:1019D000641CAC42F7DB05213846FFF747FF284679
:1019E000BDE8F08110B50446818980680022FEF7C9
:1019F000AFFD0120FEF784FCA1890122A068FEF75B
:101A0000A7FDBDE810406420FEF77ABC10B594B085
:101A1000044650220F496846FEF7D6FB94F824107E
:101A20000120884001F0B7FD94F825206B4603EBB8
:101A3000C203D3E9002301F027FC01F07DFD10284B
:101A400001DD012100E00021204600F025F814B05E
:101A500010BD00007036000870B50546C80444117A
:101A6000C4F307420621284600F0CCF80520FEF713
:101A700047FCC4F307220721284600F0C3F80520DD
:101A8000FEF73EFCE2B20821284600F0BBF8BDE8B4
:101A900070400520FEF734BC70B50C460546262183
:101AA000FFF727FF14B140F0080201E000F0F70251
:101AB0002621284600F0A6F8BDE870400A20FEF76F
:101AC0001FBC10B52D2901D22D2105E0F02901D927
:101AD000F02106E0782904D805222D3991FBF2F196
:101AE00003E00A221E31B1FBF2F1C9B22031CAB2C1
:101AF0000B2100F087F8BDE810400A20FEF700BC7B
:101B000010B50A46092100F07DF8BDE810400A2012
:101B1000FEF7F6BB70B50C4606460C2901DD0C2419
:101B200002E0072C00DA07241E21FFF7E2FE05463B
:101B30000A20FEF7E5FB64F31F15EAB21E213046CA
:101B400000F060F80A20FEF7DBFB3046BDE870408D
:101B5000FFF75CBF10B504461E21FFF7CAFE40F038
:101B600007021E21204600F04DF8BDE810400A2073
:101B7000FEF7C6BB0521FFF779BE00002DE9F04155
:101B80000F461C46154680460121C669FFF76EFECA
:101B90000E214046FFF7ADFE02460D21404600F003
:101BA00031F82A462221404600F02CF82B463A46CE
:101BB00000214046FFF7BDFD03214046FFF756FEDA
:101BC0000F4D12212868401C28604046FFF791FE07
:101BD00000070BD5FF221221404600F013F83146D2
:101BE0004046FFF743FE0120BDE8F081641E240457
:101BF000240CE6D131464046FFF738FE0020F3E7DB
:101C0000000000200EB541F080018DF80810012180
:101C10008DF804200A46009101AB02A900F001F8FA
:101C20000EBD2DE9F0470E461546044681889846BC
:101C3000DDF8209000680022FEF78AFC4FF4FA6776
:101C40003B462A463146A069FFF7F5F8A069FEF742
:101C50008FFF0128FAD13B464A464146A069FFF76B
:101C6000EAF8A069FEF784FF0128FAD1A18820686C
:101C7000BDE8F0470122FEF76BBC0000816112490C
:101C8000A12B02D0A22B07D00FE01023016083808C
:101C900081600421818108E00823016083808160E4
:101CA00002218181094B0361818240F8202F0721A5
:101CB00001710921417101218171FF218172782116
:101CC000C1720A210181704700080140000C0140E7
:101CD0002DE9F04385B00024294800940194029432
:101CE0000394816941F020018161816901F0200143
:101CF0000491816941F004018161816901F004016D
:101D00000491816941F0080181618069DFF8748084
:101D100000F0080040F61E050490002229464046C7
:101D2000FEF716FCDFF8609041F278070022394692
:101D30004846FEF70DFC0126CDE90056022569460E
:101D40004046CDE90245FEF70BFB10480095CDE972
:101D5000010469464846FEF703FBCDE90076694673
:101D60004846CDE90245FEF7FBFA0022114607205E
:101D7000FEF760FC0720FEF74FFC05B0BDE8F083DE
:101D80000010024000080140000C0140000011104A
:101D90000F4810B50D4901604FF482714160002178
:101DA0008160C1604FF400720161C0E90512082230
:101DB000C0E90721416281620A21C162FEF7DBFEB0
:101DC000002801D072B6FEE710BD000000300140CF
:101DD000D80000200E4810B50C4901604FF4827104
:101DE000416000218160C1604FF400720161C0E96F
:101DF0000512C1610162416281620A21C162FEF77E
:101E0000BAFE002801D072B6FEE710BD00380040CF
:101E10003001002010B586B00024174800940194CA
:101E20000294039404941349059401604721C0E986
:101E3000011440F2E731C0E9031444618461FFF703
:101E4000F3F908B172B6FEE74FF48050009069468E
:101E50000948FFF773FA08B172B6FEE7049404A9C3
:101E600005480594FFF7ACF9002801D072B6FEE7EB
:101E700006B010BD002C01408801002010B586B0CE
:101E800000241648009401940294039404944FF0A3
:101E90008041059401604721C0E901144FF6FF71AC
:101EA000C0E903148461FFF7BFF908B172B6FEE719
:101EB0004FF48050009069460848FFF73FFA08B198
:101EC00072B6FEE7049404A904480594FFF778F974
:101ED000002801D072B6FEE706B010BDD001002088
:101EE000FEE7FEE77047F8B5044640684FF482739A
:101EF000984217D1A0684FF48065B0F5004F01D02B
:101F0000A8420FD12068066826F040060660606887
:101F1000984207D1A068A84204D100920B46002243
:101F2000012103E000920B4600228021204600F0B0
:101F300019F8002804D0606D40F02000606503208F
:101F4000F8BD38B50B46009204460022802100F00F
:101F500009F8002804D0606D40F02000606503207F
:101F600038BD00002DE9F8431E46914688460446D8
:101F7000089DFEF7F3FA401B351AFEF7EFFA074605
:101F800025480068C0F3CB30684338E0701C37D078
:101F9000FEF7E4FAC01BA84203D215B1009860B363
:101FA0002CE02068416821F0E00141606068B0F5F4
:101FB000827F0BD1A068B0F5004F02D0B0F5806FE2
:101FC00004D12068016821F040010160A06AB0F5E9
:101FD000005F09D12068016821F400510160206888
:101FE000016841F400510160012084F85100002093
:101FF00084F850000320BDE8F8830025401E0090BF
:102000002068816838EA010004D000214945BDD12B
:102010000020F0E70121F9E7C40000207047FEF737
:10202000A3BA30B58FB028216846FEF7FFF8142117
:102030000AA8FEF7FBF801210804CDE900100024EE
:10204000029402250491CDE907504FF4E010099065
:102050006846FEF7FDFB08B172B6FEE70F20CDE93A
:102060000A054FF48060CDE90C4002210AA80E94C5
:10207000FEF712FB002801D072B6FEE70FB030BDAC
:10208000704700000148FFF7C8B900008801002030
:102090000148FFF7C2B90000D0010020F0B5026886
:1020A000164B174C174D4FF08047984205D0B84259
:1020B00003D0A04201D0A84203D122F070064A68A2
:1020C0003243984205D0B84203D0A04201D0A84282
:1020D00003D122F44074CA6822434C6922F0800282
:1020E000224302608A68C2620A688262984201D111
:1020F0000969016301214161F0BD0000002C01402C
:10210000000400400008004010B5846842EA032241
:1021100024F47F440A432243826010BD826822F087
:1021200070020A4342F007018160704710B5036AEC
:10213000046A24F001040462846924F0F00444EA8F
:10214000021423F00A020A438461026210BD10B532
:10215000036A046A24F010040462846923F0A00373
:1021600024F4704444EA023243EA011182610162BC
:1021700010BD0021016041608160704770B5044668
:1021800000680169E26821F440511143016121694D
:10219000A0680843616908432168CA6841F20C637A
:1021A0009A430243CA6020684169A26921F44071E0
:1021B000114341611E492068884202D1FEF712FB9B
:1021C00001E0FEF7FFFA00EBC00101EB00126068CE
:1021D00064218000B2FBF0F3B3FBF1F36FF018065B
:1021E0007343B2FBF0F5B2FBF0F605EB8305322347
:1021F00003EB0515B5FBF1F5B6FBF1F605F0F005BF
:1022000005EB0615B2FBF0F6B2FBF0F0B0FBF1F017
:102210006FF01802504306EB800003EB0010B0FB98
:10222000F1F0216800F00F002844886070BD0000C4
:1022300000380140FEE70000012211030148FEF7CB
:1022400087B90000000C01400A4601464FF0FF33F9
:102250000148FEF745BD00003001002008B501210E
:102260006846FFF7F1FF9DF8000008BD00224FF41B
:1022700080510148FEF76CB9000C01400A46014646
:102280004FF0FF330148FEF7D6BD000030010020BB
:1022900001B501216846FFF7F1FF08BDF8B5144C00
:1022A0000546E068804760698047616AC5F307407A
:1022B000C5F3072699B1A26A8AB18DF800008DF89E
:1022C00001608DF80250032168469047E06980471D
:1022D0000546A0698047206980472846F8BD216AE5
:1022E0008847216A30468847216AE8B28847EDE787
:1022F000500000202DE9F8431A4C05461746E068C7
:102300008846804760698047616AC5F30740C5F326
:102310000726A1B1A26A92B18DF800008DF8016084
:102320008DF80250032168469047626A394640465C
:102330009047A069804720698047BDE8F883216AFB
:102340008847216A30468847216AE8B288470025D5
:1023500005E0E069804708F805006D1CADB2BD429C
:10236000F7D3E6E750000020F8B5164C05460E46B8
:10237000E068804760698047A26A45F004058AB139
:10238000280C8DF80000280A8DF801008DF8025005
:102390008DF80360042168469047A0698047206952
:1023A0008047F8BD216AC5F307408847216AC5F315
:1023B00007208847216AE8B28847216A3046884763
:1023C000EBE7000050000020F8B51A4C0546164611
:1023D000E0680F46804760698047A26A45F00405BF
:1023E0009AB1280C8DF80000280A8DF801008DF8AC
:1023F0000250032168469047A26A3146384690470A
:10240000A069804720698047F8BD216AC5F307406D
:102410008847216AC5F307208847216AE8B28847C0
:10242000002504E0216A785D88476D1CADB2B54295
:10243000F8D3E5E7500000200907090E002804DB67
:1024400000F1E02080F80014704700F00F0000F168
:10245000E02080F8141D704770B50C4CE07900281E
:1024600013D00B4D002208212846FEF771F8608B2F
:10247000401C80B260830A2807D301220821284625
:10248000FEF766F80020E071608370BD7C000020DC
:10249000000C014070B50C4CA079002813D00B4DF6
:1024A000002210212846FEF753F8208B401C80B2F2
:1024B00020830A2807D3012210212846FEF748F876
:1024C0000020A071208370BD7C000020000C014022
:1024D0000346002010B50246491E04E09C5C521CD5
:1024E0002044C0B2D2B28A42F8DB10BD70B50446B7
:1024F000082802D94FF0FF3070BD4FF4847000EB14
:10250000441005461021FFF72FFF2846FFF7C6FEAF
:102510000028FAD14FF4027000EB44101F21FFF79E
:1025200023FF0D490120A0404A8882434A808A88BF
:1025300082438A800949002021F814000649891D38
:1025400008554FF4427000EB44142046FFF7A6FEF6
:102550000028FAD1012070BD04000020C80000202E
:102560002DE9F0411446082803D94FF0FF30BDE8AB
:10257000F0814FF40272274F02EB401642F60842F8
:1025800002EB40137A886FF0090C4FF6FF750829AB
:102590003ED2DFE801F00411151822292D372378E7
:1025A00001218140012B01D01BB131E01143798021
:1025B00026E08A437A8023E0C24002F0010015E061
:1025C00041F6087101E041F6086101EB4010FFF7A8
:1025D00065FE05EA8020208012E020781F2817D8A9
:1025E00000F01F01304609E030460CE0207007E0A3
:1025F00020781F280CD800F01F011846FFF7B4FE02
:102600000120B4E71846FFF749FE00F01F00EDE790
:102610006046ACE70400002003480068406A0349B4
:10262000898C00EB01407047D00100207C00002025
:102630002DE9F04142F2086101EB401542F20871C8
:10264000002601EB40142846FFF728FE07462046E7
:10265000FFF724FE00EB072007043F0C09D02846B3
:10266000FFF71CFE06462046FFF718FE00EB06208B
:1026700086B2BE42E7D13046BDE8F0812DE9F04197
:1026800042F2080101EB401542F20811002601EB6D
:1026900040142846FFF702FE07462046FFF7FEFDDE
:1026A00000EB072007043F0C09D02846FFF7F6FD92
:1026B00006462046FFF7F2FD00EB062086B2BE423A
:1026C000E7D13046BDE8F08108B5FDF755FFD648A3
:1026D000FFF74FFDD4480C30FFF74BFDD24E0025DD
:1026E000583E35677567B567FFF79BFCFFF7F0FA53
:1026F000FFF790FBFFF74CFBFFF76CFBA6F1C00068
:10270000CA494FF4E1370160C0E901750C24C56086
:10271000C0E904548561C561FEF779FF08B172B65E
:10272000FEE7C148C249D0380160C0E90175C56003
:10273000C0E904548561C561FEF769FF08B172B64E
:10274000FEE7FFF79BFBDFF8E092BA4FA9F1D8094B
:102750000022C9F85C50C9F86050C9F86450C9F843
:102760005050C9F8545040213846C9F85850FDF728
:10277000EFFE012220213846FDF7EAFE012210215A
:102780003846FDF7E5FE012208213846FDF7E0FE58
:1027900000F0FEFB002340F257420221012000F02E
:1027A00069FBA54C4FF47A78012803D04FF4FA6006
:1027B000E0810CE0A4F80E808DF800506A460021FC
:1027C0000120FFF7CDFE64219CA000F049F9A34948
:1027D00040F2933AA123524601F5F470FFF74EFA06
:1027E0009E49A223524601F50570FFF747FA8E482D
:1027F0004438FFF7F7F88C487038FFF7F3F81CE01F
:1028000089487038FFF7EEF887487038FEF7BCFF4C
:10281000A0820120FDF774FD83484438FFF7E2F8F9
:1028200081484438FEF7B0FFE08260790022401C06
:10283000607120217F48FDF78BFEA08AC82802D155
:10284000E08AC82803D060790A28D9D302E06079E9
:102850000A2804D3012220217648FDF779FE724828
:102860004438FFF787F935647564B564F5647B48CF
:102870003565B0307565FEF735FD7848F830FEF700
:1028800031FDDFF8A4A1DFF8A0B1AAF10C0AAAF18A
:102890007006A6F10C07A06A401CA0624FF44A70B3
:1028A000FFF7FCFC10B1222803D071E0A4F80E80E1
:1028B0006EE06420E0810120FFF7BAFE10F0FF0017
:1028C0004FF00C0264D00C2800D202465A485649F8
:1028D0000C3000F1140300907C39012000F0C2F8A4
:1028E000FFF79AFECBF800004F480C217C38FFF729
:1028F000EFFDF17A81423ED14B4900201839325C1C
:102900000A54401CC0B20C28F9D34748002144386F
:10291000007F009044484438FEF7A8FF2570FFF779
:102920007BFE41490C310860243943460C22A1F159
:102930005800FFF723F92071FFF76EFE3A490C317A
:102940000968411A38480C308160207928B1606BE1
:10295000401C60630120A07105E0315C3954401CCB
:10296000C0B20C28F9D3012020702F4800994438B8
:10297000FEF77CFF0CE0C9F85C50C9F860500020FD
:10298000FF21C9F864503954401CC0B20C28FAD356
:102990006078012839D1244965700C390C22A1F1E5
:1029A0003800FEF7E1FFE0701F480C210C38FFF7FC
:1029B0008FFD9AF80B20514682421FD1206B401C9C
:1029C00020630120207200200A5C3A54401CC0B2EF
:1029D0000C28F9D3A089184B1349009020330C22FE
:1029E0008839012000F086F90120E071FFF714FE1C
:1029F000DBF80020801ACBF8080006E00020315CEC
:102A00003954401CC0B20C28F9D3218AE089814294
:102A1000FFF441AF258240210648FDF791FDD4E93E
:102A20000C01081AA06336E730030020003801408B
:102A300000480040000C01407C000020537461728B
:102A400074206C697374656E696E67206F6E207098
:102A50006F7274202564200D0A000000D800002049
:102A6000704700002DE9FF4F002583B01F469046B8
:102A70000446082803D9681E07B0BDE8F08F60013E
:102A80004FF0010A0830FFF709FC834600F00F0001
:102A9000022806D0032804D0042802D06FF00400D6
:102AA000EAE7B8F1000F05D0DFF8C49139F8140057
:102AB00018B11EE06FF00D00DEE74FF4427000EB3E
:102AC00044160AFA04FA2046FFF7B2FD05463046DE
:102AD000FFF7E4FB30B1674949881AEA010F06D0D5
:102AE0001DB106E06FF00300C6E70020C4E7002D2B
:102AF000E9D00BF00701DFF87CA14FF484704FF0B0
:102B0000800B0AF1060A00EB4416022922D00329A1
:102B10007CD0042952D02946204600F0B3FA29F887
:102B2000145030464021FFF71FFC3046FFF7B6FB3C
:102B30000028FAD139F81410491B0904090C29F8A6
:102B4000141003D01AF8041041F001010AF804101F
:102B5000284691E739F814004D4670BB08226946B3
:102B6000204600F05FFA30464021FFF7FDFB30467B
:102B7000FFF794FB0028FAD19DF8000038709DF80B
:102B8000010078709DF80200B8709DF80300F8709D
:102B900010999DF8040008809DF8051001EB0020B5
:102BA000109908809DF806009DF807105BE02A4602
:102BB0002046049900F036FAB3E72AE039F8140009
:102BC0004D4630BB02226946204600F02BFA3046C3
:102BD0004021FFF7C9FB3046FFF760FB0028FAD120
:102BE0009DF800009DF801106FF0010202EB00203B
:102BF000084480B240F2EA5125F81400884206D910
:102C00002046FFF773FC6FF47A7035E702E00AF8AC
:102C100004B003E039F814004D4630B135F81450D3
:102C200040464545C3D90546C1E7062269462046C8
:102C300000F0F8F930464021FFF796FB3046FFF7E9
:102C40002DFB0028FAD19DF8000038709DF8010096
:102C500078709DF80200B8709DF80300F8709DF838
:102C600004009DF8051001EB002025F81400CEE7C4
:102C7000C800002004000020054A18B111B1C2E9C3
:102C80000501704703485061034890617047000098
:102C9000500000203531000833310008074A10B5D4
:102CA00013889C05FDD518B111B1C2E9070110BD0B
:102CB0000348D0610348106210BD0000500000209E
:102CC0000B32000811320008074A10B513889C0522
:102CD000FDD518B111B1C2E9090110BD0348506218
:102CE0000348906210BD0000500000200932000827
:102CF0000F3200082DE9F0471E46DDF8208015460A
:102D00008A460446082803D94FF0FF30BDE8F08713
:102D1000670108374FF001093846FFF7BFFA00F0A6
:102D20000F00022806D0032804D0042802D06FF038
:102D30000400EBE75DB13078717801EB0020B178E9
:102D400001EB0020F17811EB002003D00AE06FF0D6
:102D50000D00DBE73846FFF7A1FA400702D46FF019
:102D60000B00D3E7B8F1000F07D13846FFF796FA0A
:102D7000400702D46FF00A00C8E74FF4427000EB3E
:102D800044100746FFF78AFA422806D0222804D0CA
:102D9000322802D06FF00600B8E740F6084000EB9A
:102DA000441004223146FFF70FFB41F208004FEABE
:102DB000182100EB4410FFF7D7FA41F2081008F091
:102DC000FF0100EB4410FFF7CFFA41F6087000EB6B
:102DD0004410FFF763FA4FF6FF7101EA8020854245
:102DE00000D90546DFF8888009FA04F62046FFF787
:102DF00045FC81463846FFF751FA38B1B8F8020071
:102E0000064206D04D4504D900207FE76FF003004D
:102E10007CE74D45EAD82A465146204600F053F952
:102E20004FF4847000EB441006462021FFF79CFA13
:102E30004FF4027000EB44143046FFF72FFA0028DD
:102E4000FAD12046FFF72AFA00F01F00C10605D587
:102E500020461021FFF788FA284657E70007F0D5EB
:102E600020460821FFF780FA6FF00C004EE70000C3
:102E7000040000202DE9F8431D4617460E4604467F
:102E8000082803D94FF0FF30BDE8F883012E08D0A1
:102E9000022E0ED0032E0CD0042E0AD06FF00400A8
:102EA000F2E7042269464FF47060FFF723FA0098B6
:102EB00048B169076FF00500E6D49DB1012E05D039
:102EC000022E0FD106E06FF00200DDE715F0210FB2
:102ED000DAD007E0A90601D52906D5D5E90601D53E
:102EE0002906D1D52046FFF701FB600105F0F0016E
:102EF0004FF0010831430830FFF736FA224E57B938
:102F00003788781C80B2A0F57F413080F03902D13B
:102F10004FF4404030804FF48160390A00EB441098
:102F2000FFF722FA4FF4A160F9B200EB4410FFF76B
:102F30001BFA4FF4847000EB441007460121FFF7A1
:102F400013FA3846FFF7AAF90028FAD108FA04F074
:102F5000718805F001028143A2400A437280B18862
:102F60008143B1800949002021F814000649891DD8
:102F700008554FF4427000EB44152846FFF78EF9D0
:102F80000028FAD060B27FE704000020C8000020CB
:102F900070B516A0FFF764FD1A4D4FF400640022CF
:102FA00021462846FDF7D4FA0120FDF7A9F90122B0
:102FB00021462846FDF7CCFA4FF47A70FDF7A0F9C8
:102FC00011491248FFF758FE11491248FFF766FEF3
:102FD00011491248FFF778FE1149084600F0ABF896
:102FE000BDE870400E48083000F0E2B80D0A537496
:102FF000617274204E65772053657373696F6E211B
:103000000D0A000000080140392200086D22000866
:10301000912200085D2200087D2200084922000854
:10302000180000202DE9F0475FEA020889460646AD
:1030300026D042F6081000EB46152846FFF72EF979
:10304000074642F6080000EB46142046FFF726F933
:1030500007EB002087B2380200EB46104246494693
:103060001830FFF747F907EB080086B2310A20460F
:10307000FFF77AF9F1B22846BDE8F047FFF774B9D7
:10308000BDE8F0872DE9F041044642F6081000EB58
:1030900044150E462846FFF701F9074642F6080098
:1030A00000EB44142046FFF7F9F807EB002030440A
:1030B00086B2310A2046FFF757F9F1B22846BDE83B
:1030C000F041FFF751B92DE9F0475FEA0208894660
:1030D000064626D042F2085000EB46152846FFF778
:1030E000DDF8074642F2084000EB46142046FFF7A1
:1030F000D5F807EB002087B2380200EB46104246B5
:1031000049461030FFF760F907EB080086B2310A34
:103110002046FFF729F9F1B22846BDE8F047FFF74E
:1031200023B9BDE8F0870078704701707047704799
:103130007047704770472DE9F0410D460646002460
:1031400000F067F84FF0FF38AEB10022B05C2044C9
:1031500044B2102C17DC521C52B2082AF6DB0024B1
:1031600041F60877315D07EB4410FFF7FDF8641C6A
:1031700064B2082CF6DBCDB1002108462A5C11446C
:1031800049B2102902DD4046BDE8F081401C40B242
:103190000828F3DB002441F60866295D06EB44109D
:1031A000FFF7E2F8641C64B2082CF6DB0020EBE7C2
:1031B00010B50446014606224FF41060FFF704F9EB
:1031C000042204F10E019001FFF7FEF8042204F13D
:1031D0000A014FF4A060FFF7F7F80422A11D4FF495
:1031E0007060FFF7F1F80748A17C0170E17C417045
:1031F000217D8170617DC1700249A07D491E0870EA
:1032000010BD000049000020704700207047704743
:103210007047F0B585B04FF4106406226946204629
:10322000FFF768F80422950102A92846FFF762F823
:103230004FF4A066042203A93046FFF75BF84FF471
:103240007067042204A93846FFF754F88021002053
:10325000FFF78AF80020FFF721F80622694620468A
:10326000FFF7B2F8042202A92846FFF7ADF80422BE
:1032700003A93046FFF7A8F8042204A93846FFF74F
:10328000A3F805B0F0BD00002DE9C04130B4DFF86F
:10329000A0C23CEA111418BF3CEA131400F0EC8001
:1032A00081EA03051CEA111444EAD57418BF1CEA2C
:1032B000131500F0C780A4EB05044FF0004545EA64
:1032C000C12145EAC32341EA505143EA525304F174
:1032D0007F74994204F500344FEAC0204FEAC222BD
:1032E00008BF904200F09C804FEA13650FF2401631
:1032F000765D4FEA134506FB05F7C7F1807706FBBD
:1033000007F74FEAD737A7FB03687642C8F580383E
:10331000A7FB06CE38BFA8F1010807FB08E64FF06F
:10332000000EA6FB028CE6FB03CEDCF1000CCEF116
:10333000004E38BFAEF1010EA6FB0C584FF000074F
:103340004FF00005E6FB0E87A1FB08C6A0FB07CEE9
:1033500016EB0E0645F10005E1FB076515F1E04EA1
:103360007EBFA4F580345FEA46066D4116F1800702
:1033700045F100054FEA17274FEA066647EA056759
:10338000A6F1DE46B6F1805F4FEA15251FD9384613
:1033900024F0010C05EBC471BCF1FE6F01EB0C11C4
:1033A00002D8F0BCBDE8008124425CBF01F5801E5C
:1033B0009EEAC47F02D4F0BCBDE80081244238D428
:1033C000F0BCA1F1C041BDE8004100F049B94FEAAD
:1033D000D22242EA43524FEAD323A7FB02864FEAA6
:1033E000D02040EA415007FB03661EEA0E0F4FEA69
:1033F000D12105FB026658BFA6EB0056B6EB00567E
:103400004FEA520E4EEAC37E18EB0E0E56EB530EE9
:10341000BDD518EB02085E417F1C55F10005B6E7EB
:103420004FF480154FF000074FF000064FF00008F2
:10343000ADE7F0BC4FF0000001F1C04101F00041E8
:10344000BDE8008111EA0C1F0CEA131500D00CE056
:1034500013EA0C1F00F025804FF00000F0BC81EA59
:10346000030101F00041BDE80081F0BCBDE800416E
:1034700081EA030100F0F4B8F0BCBDE8004170B58A
:1034800000F0A0F8097EFC3E00F007B881EA0301D5
:103490004FF0000001F00041704781EA030100F0A5
:1034A000DFB8F0BCBDE800414FF000002149704793
:1034B000FFFDFBF9F7F5F4F2F0EEEDEBE9E8E6E4F9
:1034C000E3E1E0DEDDDBDAD8D7D5D4D3D1D0CFCD80
:1034D000CCCBCAC8C7C6C5C4C2C1C0BFBEBDBCBBB9
:1034E000BAB9B8B7B6B5B4B3B2B1B0AFAEADACABB4
:1034F000AAA9A8A8A7A6A5A4A3A3A2A1A09F9F9E8E
:103500009D9C9C9B9A99999897979695959493933F
:10351000929191908F8F8E8E8D8C8C8B8B8A8989D6
:103520008888878786858584848383828281818059
:103530000000FF070000F87F4FEA41034FEA5353B2
:10354000A3F58063D3F11E03C8BFD3F1210C0CDDBA
:103550004FF0004242EAC12242EA505232FA03FCE2
:103560008CEAE17CACEBE1707047102BC4BF00200B
:10357000704703F5787CBCF1FF3F04D06FF0004248
:1035800082EA2100704770B500F01CF8499224804F
:1035900000207047F2E710F0004248BF4042B0FA06
:1035A00080F310FA03F10AD0C3F11D0303F5806321
:1035B0004FEA415002EB035202EBD12170474FF02A
:1035C000000070470EF1020E2EF0030E5EF8046B41
:1035D000364205D4012A43EB030515F5001F12D826
:1035E000012841EB010C1CF5001F0CD80ED14FEA4D
:1035F000D17C15F5001F0CEB4C0C0CF1020C08BF34
:103600004CEBD37C04E04FF0080C01E04FEAD37C94
:103610000CEB4C0526FA05F606F00706B6F1040C8D
:1036200006D20EEB860CBDE870404CF0010C6047F2
:10363000DFE80CF0090B02024FF000414FF00000F0
:10364000A1F5002170BD19461046012851EB010477
:1036500018BFD4F5001484BF002001F0004170BDF4
:103660000808A0F500114FEA310170470000000082
:103670003333333333331F40CDCCCCCCCCCC24408C
:103680003333333333332F40CDCCCCCCCCCC34405C
:103690000000000000403F409A99999999D9444010
:1036A0000000000000404F400000000000405F406C
:1036B0000000000000406F400000000000407F401C
:1036C000010202030405060708090A0B0C0D0E0F80
:1036D00010100000000000000000010203040607B3
:1036E0000809000000000102030400000C37000874
:1036F00000000020C800000028010008D43700089E
:10370000C8000020F008000044010008000000008C
:1037100000C000000000000000000000000057048E
:10372000C0A801640202020202020202C0A80167EC
:103730000457C0A80167FFFFE100C0A80101080805
:10374000080801020202020202020202020202024E
:1037500002020200000000000000000001025735D4
:1037600035303000000000002F31000831310008F2
:103770003531000833310008273100082B310008AB
:103780000000000000000000000000EEEE0000005D
:10379000000000005704DC0500000000EEEEEEEE35
:1037A0000000000000000000C0A80164000000004C
:1037B0000000000000000000000000000000000009
:1037C00000000000010000001000000000000000E8
:0437D0000024F400DD
:04000005080000ED02
:00000001FF
